{
  "contractName": "ERC1155",
  "abi": [
    {
      "inputs": [
        {
          "internalType": "string",
          "name": "uri",
          "type": "string"
        }
      ],
      "stateMutability": "nonpayable",
      "type": "constructor"
    },
    {
      "anonymous": false,
      "inputs": [
        {
          "indexed": true,
          "internalType": "address",
          "name": "account",
          "type": "address"
        },
        {
          "indexed": true,
          "internalType": "address",
          "name": "operator",
          "type": "address"
        },
        {
          "indexed": false,
          "internalType": "bool",
          "name": "approved",
          "type": "bool"
        }
      ],
      "name": "ApprovalForAll",
      "type": "event"
    },
    {
      "anonymous": false,
      "inputs": [
        {
          "indexed": true,
          "internalType": "address",
          "name": "operator",
          "type": "address"
        },
        {
          "indexed": true,
          "internalType": "address",
          "name": "from",
          "type": "address"
        },
        {
          "indexed": true,
          "internalType": "address",
          "name": "to",
          "type": "address"
        },
        {
          "indexed": false,
          "internalType": "uint256[]",
          "name": "ids",
          "type": "uint256[]"
        },
        {
          "indexed": false,
          "internalType": "uint256[]",
          "name": "values",
          "type": "uint256[]"
        }
      ],
      "name": "TransferBatch",
      "type": "event"
    },
    {
      "anonymous": false,
      "inputs": [
        {
          "indexed": true,
          "internalType": "address",
          "name": "operator",
          "type": "address"
        },
        {
          "indexed": true,
          "internalType": "address",
          "name": "from",
          "type": "address"
        },
        {
          "indexed": true,
          "internalType": "address",
          "name": "to",
          "type": "address"
        },
        {
          "indexed": false,
          "internalType": "uint256",
          "name": "id",
          "type": "uint256"
        },
        {
          "indexed": false,
          "internalType": "uint256",
          "name": "value",
          "type": "uint256"
        }
      ],
      "name": "TransferSingle",
      "type": "event"
    },
    {
      "anonymous": false,
      "inputs": [
        {
          "indexed": false,
          "internalType": "string",
          "name": "value",
          "type": "string"
        },
        {
          "indexed": true,
          "internalType": "uint256",
          "name": "id",
          "type": "uint256"
        }
      ],
      "name": "URI",
      "type": "event"
    },
    {
      "inputs": [
        {
          "internalType": "address",
          "name": "",
          "type": "address"
        },
        {
          "internalType": "address",
          "name": "",
          "type": "address"
        }
      ],
      "name": "approvals",
      "outputs": [
        {
          "internalType": "bool",
          "name": "",
          "type": "bool"
        }
      ],
      "stateMutability": "view",
      "type": "function",
      "constant": true
    },
    {
      "inputs": [
        {
          "internalType": "address",
          "name": "",
          "type": "address"
        },
        {
          "internalType": "uint256",
          "name": "",
          "type": "uint256"
        }
      ],
      "name": "balances",
      "outputs": [
        {
          "internalType": "uint256",
          "name": "balance",
          "type": "uint256"
        },
        {
          "internalType": "uint256",
          "name": "price",
          "type": "uint256"
        }
      ],
      "stateMutability": "view",
      "type": "function",
      "constant": true
    },
    {
      "inputs": [],
      "name": "baseUri",
      "outputs": [
        {
          "internalType": "string",
          "name": "",
          "type": "string"
        }
      ],
      "stateMutability": "view",
      "type": "function",
      "constant": true
    },
    {
      "inputs": [
        {
          "internalType": "uint256",
          "name": "",
          "type": "uint256"
        }
      ],
      "name": "creators",
      "outputs": [
        {
          "internalType": "address",
          "name": "",
          "type": "address"
        }
      ],
      "stateMutability": "view",
      "type": "function",
      "constant": true
    },
    {
      "inputs": [],
      "name": "lastId",
      "outputs": [
        {
          "internalType": "uint256",
          "name": "",
          "type": "uint256"
        }
      ],
      "stateMutability": "view",
      "type": "function",
      "constant": true
    },
    {
      "inputs": [
        {
          "internalType": "uint256",
          "name": "",
          "type": "uint256"
        }
      ],
      "name": "requests",
      "outputs": [
        {
          "internalType": "uint256",
          "name": "id",
          "type": "uint256"
        },
        {
          "internalType": "address",
          "name": "initializer",
          "type": "address"
        },
        {
          "internalType": "address",
          "name": "confirmer",
          "type": "address"
        },
        {
          "internalType": "uint256",
          "name": "confirmerTokenId",
          "type": "uint256"
        },
        {
          "internalType": "uint256",
          "name": "confirmerAmount",
          "type": "uint256"
        },
        {
          "internalType": "uint256",
          "name": "initializerTokenId",
          "type": "uint256"
        },
        {
          "internalType": "uint256",
          "name": "initializerAmount",
          "type": "uint256"
        }
      ],
      "stateMutability": "view",
      "type": "function",
      "constant": true
    },
    {
      "inputs": [
        {
          "internalType": "address",
          "name": "account",
          "type": "address"
        },
        {
          "internalType": "uint256",
          "name": "id",
          "type": "uint256"
        }
      ],
      "name": "balanceOf",
      "outputs": [
        {
          "internalType": "uint256",
          "name": "",
          "type": "uint256"
        }
      ],
      "stateMutability": "view",
      "type": "function",
      "constant": true
    },
    {
      "inputs": [
        {
          "internalType": "address",
          "name": "account",
          "type": "address"
        },
        {
          "internalType": "uint256",
          "name": "id",
          "type": "uint256"
        }
      ],
      "name": "priceOf",
      "outputs": [
        {
          "internalType": "uint256",
          "name": "",
          "type": "uint256"
        }
      ],
      "stateMutability": "view",
      "type": "function",
      "constant": true
    },
    {
      "inputs": [],
      "name": "getRequests",
      "outputs": [
        {
          "components": [
            {
              "internalType": "uint256",
              "name": "id",
              "type": "uint256"
            },
            {
              "internalType": "address",
              "name": "initializer",
              "type": "address"
            },
            {
              "internalType": "address",
              "name": "confirmer",
              "type": "address"
            },
            {
              "internalType": "uint256",
              "name": "confirmerTokenId",
              "type": "uint256"
            },
            {
              "internalType": "uint256",
              "name": "confirmerAmount",
              "type": "uint256"
            },
            {
              "internalType": "uint256",
              "name": "initializerTokenId",
              "type": "uint256"
            },
            {
              "internalType": "uint256",
              "name": "initializerAmount",
              "type": "uint256"
            }
          ],
          "internalType": "struct ERC1155.SwapRequest[]",
          "name": "",
          "type": "tuple[]"
        }
      ],
      "stateMutability": "view",
      "type": "function",
      "constant": true
    },
    {
      "inputs": [
        {
          "internalType": "uint256",
          "name": "id",
          "type": "uint256"
        }
      ],
      "name": "creatorOf",
      "outputs": [
        {
          "internalType": "address",
          "name": "",
          "type": "address"
        }
      ],
      "stateMutability": "view",
      "type": "function",
      "constant": true
    },
    {
      "inputs": [
        {
          "internalType": "uint256",
          "name": "tokenId",
          "type": "uint256"
        }
      ],
      "name": "ownersOf",
      "outputs": [
        {
          "internalType": "address[]",
          "name": "",
          "type": "address[]"
        }
      ],
      "stateMutability": "view",
      "type": "function",
      "constant": true
    },
    {
      "inputs": [
        {
          "internalType": "address[]",
          "name": "accounts",
          "type": "address[]"
        },
        {
          "internalType": "uint256[]",
          "name": "ids",
          "type": "uint256[]"
        }
      ],
      "name": "balanceOfBatch",
      "outputs": [
        {
          "internalType": "uint256[]",
          "name": "",
          "type": "uint256[]"
        }
      ],
      "stateMutability": "view",
      "type": "function",
      "constant": true
    },
    {
      "inputs": [
        {
          "internalType": "address",
          "name": "operator",
          "type": "address"
        },
        {
          "internalType": "bool",
          "name": "approved",
          "type": "bool"
        }
      ],
      "name": "setApprovalForAll",
      "outputs": [],
      "stateMutability": "nonpayable",
      "type": "function"
    },
    {
      "inputs": [
        {
          "internalType": "address",
          "name": "account",
          "type": "address"
        },
        {
          "internalType": "address",
          "name": "operator",
          "type": "address"
        }
      ],
      "name": "isApprovedForAll",
      "outputs": [
        {
          "internalType": "bool",
          "name": "",
          "type": "bool"
        }
      ],
      "stateMutability": "view",
      "type": "function",
      "constant": true
    },
    {
      "inputs": [
        {
          "internalType": "address",
          "name": "from",
          "type": "address"
        },
        {
          "internalType": "address",
          "name": "to",
          "type": "address"
        },
        {
          "internalType": "uint256",
          "name": "id",
          "type": "uint256"
        },
        {
          "internalType": "uint256",
          "name": "amount",
          "type": "uint256"
        },
        {
          "internalType": "bytes",
          "name": "data",
          "type": "bytes"
        }
      ],
      "name": "safeTransferFrom",
      "outputs": [],
      "stateMutability": "nonpayable",
      "type": "function"
    },
    {
      "inputs": [
        {
          "internalType": "address",
          "name": "from",
          "type": "address"
        },
        {
          "internalType": "address",
          "name": "to",
          "type": "address"
        },
        {
          "internalType": "uint256[]",
          "name": "ids",
          "type": "uint256[]"
        },
        {
          "internalType": "uint256[]",
          "name": "amounts",
          "type": "uint256[]"
        },
        {
          "internalType": "bytes",
          "name": "data",
          "type": "bytes"
        }
      ],
      "name": "safeBatchTransferFrom",
      "outputs": [],
      "stateMutability": "nonpayable",
      "type": "function"
    },
    {
      "inputs": [
        {
          "internalType": "uint256",
          "name": "amount",
          "type": "uint256"
        },
        {
          "internalType": "uint256",
          "name": "price",
          "type": "uint256"
        }
      ],
      "name": "mint",
      "outputs": [],
      "stateMutability": "nonpayable",
      "type": "function"
    },
    {
      "inputs": [
        {
          "internalType": "uint256",
          "name": "tokenId",
          "type": "uint256"
        },
        {
          "internalType": "address",
          "name": "from",
          "type": "address"
        },
        {
          "internalType": "uint256",
          "name": "amount",
          "type": "uint256"
        },
        {
          "internalType": "uint256",
          "name": "sellPrice",
          "type": "uint256"
        }
      ],
      "name": "buy",
      "outputs": [],
      "stateMutability": "payable",
      "type": "function",
      "payable": true
    },
    {
      "inputs": [
        {
          "internalType": "uint256",
          "name": "yourTokenId",
          "type": "uint256"
        },
        {
          "internalType": "uint256",
          "name": "yourAmount",
          "type": "uint256"
        },
        {
          "internalType": "uint256",
          "name": "confirmerTokenId",
          "type": "uint256"
        },
        {
          "internalType": "uint256",
          "name": "confirmerAmount",
          "type": "uint256"
        },
        {
          "internalType": "address",
          "name": "confirmer",
          "type": "address"
        }
      ],
      "name": "createSwapRequest",
      "outputs": [],
      "stateMutability": "nonpayable",
      "type": "function"
    },
    {
      "inputs": [
        {
          "internalType": "uint256",
          "name": "swapRequestId",
          "type": "uint256"
        }
      ],
      "name": "confirmSwapRequest",
      "outputs": [],
      "stateMutability": "nonpayable",
      "type": "function"
    },
    {
      "inputs": [
        {
          "internalType": "bytes4",
          "name": "interfaceId",
          "type": "bytes4"
        }
      ],
      "name": "supportsInterface",
      "outputs": [
        {
          "internalType": "bool",
          "name": "",
          "type": "bool"
        }
      ],
      "stateMutability": "view",
      "type": "function",
      "constant": true
    }
  ],
  "bytecode": "0x608060405260405180602001604052806000815250600090805190602001906200002b92919062000083565b50600180553480156200003d57600080fd5b5060405162005163380380620051638339818101604052810190620000639190620001b1565b80600090805190602001906200007b92919062000083565b505062000386565b828054620000919062000297565b90600052602060002090601f016020900481019282620000b5576000855562000101565b82601f10620000d057805160ff191683800117855562000101565b8280016001018555821562000101579182015b8281111562000100578251825591602001919060010190620000e3565b5b50905062000110919062000114565b5090565b5b808211156200012f57600081600090555060010162000115565b5090565b60006200014a62000144846200022b565b62000202565b90508281526020810184848401111562000169576200016862000366565b5b6200017684828562000261565b509392505050565b600082601f83011262000196576200019562000361565b5b8151620001a884826020860162000133565b91505092915050565b600060208284031215620001ca57620001c962000370565b5b600082015167ffffffffffffffff811115620001eb57620001ea6200036b565b5b620001f9848285016200017e565b91505092915050565b60006200020e62000221565b90506200021c8282620002cd565b919050565b6000604051905090565b600067ffffffffffffffff82111562000249576200024862000332565b5b620002548262000375565b9050602081019050919050565b60005b838110156200028157808201518184015260208101905062000264565b8381111562000291576000848401525b50505050565b60006002820490506001821680620002b057607f821691505b60208210811415620002c757620002c662000303565b5b50919050565b620002d88262000375565b810181811067ffffffffffffffff82111715620002fa57620002f962000332565b5b80604052505050565b7f4e487b7100000000000000000000000000000000000000000000000000000000600052602260045260246000fd5b7f4e487b7100000000000000000000000000000000000000000000000000000000600052604160045260246000fd5b600080fd5b600080fd5b600080fd5b600080fd5b6000601f19601f8301169050919050565b614dcd80620003966000396000f3fe608060405260043610610146576000357c0100000000000000000000000000000000000000000000000000000000900480639abc8320116100c8578063c1292cc31161008c578063c1292cc31461043b578063cbf1304d14610466578063cd53d08e146104a4578063e985e9c5146104e1578063f242432a1461051e578063fc3d545d1461054757610146565b80639abc832014610344578063a22cb4651461036f578063a32ce11e14610398578063a584ab29146103d5578063a60913a01461041257610146565b80634e1273f41161010f5780634e1273f414610240578063589a17431461027d578063706910ff146102ba57806381d12c58146102d65780638813ce121461031957610146565b8062fdd58e1461014b57806301ffc9a7146101885780631b2ef1ca146101c557806320e972b9146101ee5780632eb2c2d614610217575b600080fd5b34801561015757600080fd5b50610172600480360381019061016d91906139c6565b610584565b60405161017f91906143ff565b60405180910390f35b34801561019457600080fd5b506101af60048036038101906101aa9190613a7e565b6105e2565b6040516101bc9190614262565b60405180910390f35b3480156101d157600080fd5b506101ec60048036038101906101e79190613b6c565b61064c565b005b3480156101fa57600080fd5b5061021560048036038101906102109190613ad8565b6107f3565b005b34801561022357600080fd5b5061023e60048036038101906102399190613813565b611475565b005b34801561024c57600080fd5b5061026760048036038101906102629190613a06565b611d58565b6040516102749190614240565b60405180910390f35b34801561028957600080fd5b506102a4600480360381019061029f9190613ad8565b611e72565b6040516102b191906140de565b60405180910390f35b6102d460048036038101906102cf9190613b05565b611eaf565b005b3480156102e257600080fd5b506102fd60048036038101906102f89190613ad8565b612535565b604051610310979695949392919061441a565b60405180910390f35b34801561032557600080fd5b5061032e6125c7565b60405161033b91906141e3565b60405180910390f35b34801561035057600080fd5b50610359612704565b604051610366919061427d565b60405180910390f35b34801561037b57600080fd5b5061039660048036038101906103919190613986565b612792565b005b3480156103a457600080fd5b506103bf60048036038101906103ba91906137d3565b61288f565b6040516103cc9190614262565b60405180910390f35b3480156103e157600080fd5b506103fc60048036038101906103f79190613ad8565b6128be565b60405161040991906141c1565b60405180910390f35b34801561041e57600080fd5b5061043960048036038101906104349190613bac565b61295f565b005b34801561044757600080fd5b50610450612ab7565b60405161045d91906143ff565b60405180910390f35b34801561047257600080fd5b5061048d600480360381019061048891906139c6565b612abd565b60405161049b929190614489565b60405180910390f35b3480156104b057600080fd5b506104cb60048036038101906104c69190613ad8565b612aee565b6040516104d891906140de565b60405180910390f35b3480156104ed57600080fd5b50610508600480360381019061050391906137d3565b612b21565b6040516105159190614262565b60405180910390f35b34801561052a57600080fd5b50610545600480360381019061054091906138ef565b612bb5565b005b34801561055357600080fd5b5061056e600480360381019061056991906139c6565b61349b565b60405161057b91906143ff565b60405180910390f35b6000600260008473ffffffffffffffffffffffffffffffffffffffff1673ffffffffffffffffffffffffffffffffffffffff168152602001908152602001600020600083815260200190815260200160002060000154905092915050565b60007fd9b67a26000000000000000000000000000000000000000000000000000000007bffffffffffffffffffffffffffffffffffffffffffffffffffffffff1916827bffffffffffffffffffffffffffffffffffffffffffffffffffffffff1916149050919050565b6000821161068f576040517f08c379a0000000000000000000000000000000000000000000000000000000008152600401610686906143bf565b60405180910390fd5b604051806040016040528083815260200182815250600260003373ffffffffffffffffffffffffffffffffffffffff1673ffffffffffffffffffffffffffffffffffffffff1681526020019081526020016000206000600154815260200190815260200160002060008201518160000155602082015181600101559050503360046000600154815260200190815260200160002060006101000a81548173ffffffffffffffffffffffffffffffffffffffff021916908373ffffffffffffffffffffffffffffffffffffffff160217905550600660006001548152602001908152602001600020339080600181540180825580915050600190039060005260206000200160009091909190916101000a81548173ffffffffffffffffffffffffffffffffffffffff021916908373ffffffffffffffffffffffffffffffffffffffff160217905550600160008154809291906107ea90614871565b91905055505050565b60006005828154811061080957610808614947565b5b90600052602060002090600702016040518060e0016040529081600082015481526020016001820160009054906101000a900473ffffffffffffffffffffffffffffffffffffffff1673ffffffffffffffffffffffffffffffffffffffff1673ffffffffffffffffffffffffffffffffffffffff1681526020016002820160009054906101000a900473ffffffffffffffffffffffffffffffffffffffff1673ffffffffffffffffffffffffffffffffffffffff1673ffffffffffffffffffffffffffffffffffffffff1681526020016003820154815260200160048201548152602001600582015481526020016006820154815250509050806040015173ffffffffffffffffffffffffffffffffffffffff163373ffffffffffffffffffffffffffffffffffffffff161461093e57600080fd5b8060800151600260003373ffffffffffffffffffffffffffffffffffffffff1673ffffffffffffffffffffffffffffffffffffffff1681526020019081526020016000206000836060015181526020019081526020016000206000015410156109dc576040517f08c379a00000000000000000000000000000000000000000000000000000000081526004016109d39061429f565b60405180910390fd5b8060c0015160026000836020015173ffffffffffffffffffffffffffffffffffffffff1673ffffffffffffffffffffffffffffffffffffffff16815260200190815260200160002060008360a001518152602001908152602001600020600001541015610a7e576040517f08c379a0000000000000000000000000000000000000000000000000000000008152600401610a75906142df565b60405180910390fd5b600060026000836020015173ffffffffffffffffffffffffffffffffffffffff1673ffffffffffffffffffffffffffffffffffffffff168152602001908152602001600020600083606001518152602001908152602001600020600001541415610bca5760405180604001604052808260800151815260200160026000846040015173ffffffffffffffffffffffffffffffffffffffff1673ffffffffffffffffffffffffffffffffffffffff1681526020019081526020016000206000846060015181526020019081526020016000206001015481525060026000836020015173ffffffffffffffffffffffffffffffffffffffff1673ffffffffffffffffffffffffffffffffffffffff1681526020019081526020016000206000836060015181526020019081526020016000206000820151816000015560208201518160010155905050610c41565b806080015160026000836020015173ffffffffffffffffffffffffffffffffffffffff1673ffffffffffffffffffffffffffffffffffffffff1681526020019081526020016000206000836060015181526020019081526020016000206000016000828254610c399190614643565b925050819055505b60008160800151600260003373ffffffffffffffffffffffffffffffffffffffff1673ffffffffffffffffffffffffffffffffffffffff16815260200190815260200160002060008460600151815260200190815260200160002060000154610caa9190614724565b1415610e3357600260003373ffffffffffffffffffffffffffffffffffffffff1673ffffffffffffffffffffffffffffffffffffffff1681526020019081526020016000206000826060015181526020019081526020016000206000808201600090556001820160009055505060005b600660008360600151815260200190815260200160002080549050811015610e2d573373ffffffffffffffffffffffffffffffffffffffff1660066000846060015181526020019081526020016000208281548110610d7c57610d7b614947565b5b9060005260206000200160009054906101000a900473ffffffffffffffffffffffffffffffffffffffff1673ffffffffffffffffffffffffffffffffffffffff161415610e1a5760066000836060015181526020019081526020016000208181548110610dec57610deb614947565b5b9060005260206000200160006101000a81549073ffffffffffffffffffffffffffffffffffffffff02191690555b8080610e2590614871565b915050610d1a565b50610ea6565b8060800151600260003373ffffffffffffffffffffffffffffffffffffffff1673ffffffffffffffffffffffffffffffffffffffff1681526020019081526020016000206000836060015181526020019081526020016000206000016000828254610e9e9190614724565b925050819055505b600660008260600151815260200190815260200160002081602001519080600181540180825580915050600190039060005260206000200160009091909190916101000a81548173ffffffffffffffffffffffffffffffffffffffff021916908373ffffffffffffffffffffffffffffffffffffffff160217905550600060026000836040015173ffffffffffffffffffffffffffffffffffffffff1673ffffffffffffffffffffffffffffffffffffffff16815260200190815260200160002060008360a00151815260200190815260200160002060000154141561106e5760405180604001604052808260c00151815260200160026000846020015173ffffffffffffffffffffffffffffffffffffffff1673ffffffffffffffffffffffffffffffffffffffff16815260200190815260200160002060008460a0015181526020019081526020016000206001015481525060026000836040015173ffffffffffffffffffffffffffffffffffffffff1673ffffffffffffffffffffffffffffffffffffffff16815260200190815260200160002060008360a00151815260200190815260200160002060008201518160000155602082015181600101559050506110e5565b8060c0015160026000836040015173ffffffffffffffffffffffffffffffffffffffff1673ffffffffffffffffffffffffffffffffffffffff16815260200190815260200160002060008360a00151815260200190815260200160002060000160008282546110dd9190614643565b925050819055505b60008160c0015160026000846020015173ffffffffffffffffffffffffffffffffffffffff1673ffffffffffffffffffffffffffffffffffffffff16815260200190815260200160002060008460a001518152602001908152602001600020600001546111529190614724565b14156112e35760026000826020015173ffffffffffffffffffffffffffffffffffffffff1673ffffffffffffffffffffffffffffffffffffffff16815260200190815260200160002060008260a0015181526020019081526020016000206000808201600090556001820160009055505060005b600660008360a001518152602001908152602001600020805490508110156112dd57816020015173ffffffffffffffffffffffffffffffffffffffff16600660008460a001518152602001908152602001600020828154811061122c5761122b614947565b5b9060005260206000200160009054906101000a900473ffffffffffffffffffffffffffffffffffffffff1673ffffffffffffffffffffffffffffffffffffffff1614156112ca57600660008360a001518152602001908152602001600020818154811061129c5761129b614947565b5b9060005260206000200160006101000a81549073ffffffffffffffffffffffffffffffffffffffff02191690555b80806112d590614871565b9150506111c6565b5061135a565b8060c0015160026000836020015173ffffffffffffffffffffffffffffffffffffffff1673ffffffffffffffffffffffffffffffffffffffff16815260200190815260200160002060008360a00151815260200190815260200160002060000160008282546113529190614724565b925050819055505b600660008260a00151815260200190815260200160002081604001519080600181540180825580915050600190039060005260206000200160009091909190916101000a81548173ffffffffffffffffffffffffffffffffffffffff021916908373ffffffffffffffffffffffffffffffffffffffff160217905550600582815481106113ea576113e9614947565b5b90600052602060002090600702016000808201600090556001820160006101000a81549073ffffffffffffffffffffffffffffffffffffffff02191690556002820160006101000a81549073ffffffffffffffffffffffffffffffffffffffff0219169055600382016000905560048201600090556005820160009055600682016000905550505050565b600073ffffffffffffffffffffffffffffffffffffffff168773ffffffffffffffffffffffffffffffffffffffff1614156114e5576040517f08c379a00000000000000000000000000000000000000000000000000000000081526004016114dc9061433f565b60405180910390fd5b83839050868690501461152d576040517f08c379a00000000000000000000000000000000000000000000000000000000081526004016115249061431f565b60405180910390fd5b60005b868690508111611ac4578873ffffffffffffffffffffffffffffffffffffffff163373ffffffffffffffffffffffffffffffffffffffff161480611601575060011515600360008b73ffffffffffffffffffffffffffffffffffffffff1673ffffffffffffffffffffffffffffffffffffffff16815260200190815260200160002060003373ffffffffffffffffffffffffffffffffffffffff1673ffffffffffffffffffffffffffffffffffffffff16815260200190815260200160002060009054906101000a900460ff161515145b611640576040517f08c379a00000000000000000000000000000000000000000000000000000000081526004016116379061439f565b60405180910390fd5b84848281811061165357611652614947565b5b90506020020135600260008b73ffffffffffffffffffffffffffffffffffffffff1673ffffffffffffffffffffffffffffffffffffffff16815260200190815260200160002060008989858181106116ae576116ad614947565b5b905060200201358152602001908152602001600020600001541015611708576040517f08c379a00000000000000000000000000000000000000000000000000000000081526004016116ff9061435f565b60405180910390fd5b600085858381811061171d5761171c614947565b5b90506020020135600260008c73ffffffffffffffffffffffffffffffffffffffff1673ffffffffffffffffffffffffffffffffffffffff16815260200190815260200160002060008a8a8681811061177857611777614947565b5b9050602002013581526020019081526020016000206000015461179b9190614724565b141561197857600260008a73ffffffffffffffffffffffffffffffffffffffff1673ffffffffffffffffffffffffffffffffffffffff16815260200190815260200160002060008888848181106117f5576117f4614947565b5b9050602002013581526020019081526020016000206000808201600090556001820160009055505060005b6006600089898581811061183757611836614947565b5b90506020020135815260200190815260200160002080549050811015611972578973ffffffffffffffffffffffffffffffffffffffff16600660008a8a8681811061188557611884614947565b5b90506020020135815260200190815260200160002082815481106118ac576118ab614947565b5b9060005260206000200160009054906101000a900473ffffffffffffffffffffffffffffffffffffffff1673ffffffffffffffffffffffffffffffffffffffff16141561195f576006600089898581811061190a57611909614947565b5b905060200201358152602001908152602001600020818154811061193157611930614947565b5b9060005260206000200160006101000a81549073ffffffffffffffffffffffffffffffffffffffff02191690555b808061196a90614871565b915050611820565b50611a15565b84848281811061198b5761198a614947565b5b90506020020135600260008b73ffffffffffffffffffffffffffffffffffffffff1673ffffffffffffffffffffffffffffffffffffffff16815260200190815260200160002060008989858181106119e6576119e5614947565b5b9050602002013581526020019081526020016000206000016000828254611a0d9190614724565b925050819055505b848482818110611a2857611a27614947565b5b90506020020135600260008a73ffffffffffffffffffffffffffffffffffffffff1673ffffffffffffffffffffffffffffffffffffffff1681526020019081526020016000206000898985818110611a8357611a82614947565b5b9050602002013581526020019081526020016000206000016000828254611aaa9190614643565b925050819055508080611abc90614871565b915050611530565b508673ffffffffffffffffffffffffffffffffffffffff168873ffffffffffffffffffffffffffffffffffffffff163373ffffffffffffffffffffffffffffffffffffffff167f4a39dc06d4c0dbc64b70af90fd698a233a518aa5d07e595d983b8c0526c8f7fb89898989604051611b3f9493929190614205565b60405180910390a4611b50876134f9565b15611d4e578673ffffffffffffffffffffffffffffffffffffffff1663bc197c81338a8989898989896040518963ffffffff167c0100000000000000000000000000000000000000000000000000000000028152600401611bb89897969594939291906140f9565b602060405180830381600087803b158015611bd257600080fd5b505af1925050508015611c0357506040513d601f19601f82011682018060405250810190611c009190613aab565b60015b611ca957611c0f6149a5565b806308c379a01415611c6c5750611c24614ca5565b80611c2f5750611c6e565b806040517f08c379a0000000000000000000000000000000000000000000000000000000008152600401611c63919061427d565b60405180910390fd5b505b6040517f08c379a0000000000000000000000000000000000000000000000000000000008152600401611ca0906143df565b60405180910390fd5b63bc197c817c0100000000000000000000000000000000000000000000000000000000027bffffffffffffffffffffffffffffffffffffffffffffffffffffffff1916817bffffffffffffffffffffffffffffffffffffffffffffffffffffffff191614611d4c576040517f08c379a0000000000000000000000000000000000000000000000000000000008152600401611d43906142ff565b60405180910390fd5b505b5050505050505050565b60608151835114611d9e576040517f08c379a0000000000000000000000000000000000000000000000000000000008152600401611d959061431f565b60405180910390fd5b6000835167ffffffffffffffff811115611dbb57611dba614976565b5b604051908082528060200260200182016040528015611de95781602001602082028036833780820191505090505b50905060005b84518111611e6757611e35858281518110611e0d57611e0c614947565b5b6020026020010151858381518110611e2857611e27614947565b5b6020026020010151610584565b828281518110611e4857611e47614947565b5b6020026020010181815250508080611e5f90614871565b915050611def565b508091505092915050565b60006004600083815260200190815260200160002060009054906101000a900473ffffffffffffffffffffffffffffffffffffffff169050919050565b81600260008573ffffffffffffffffffffffffffffffffffffffff1673ffffffffffffffffffffffffffffffffffffffff168152602001908152602001600020600086815260200190815260200160002060010154611f0e91906146ca565b341015611f50576040517f08c379a0000000000000000000000000000000000000000000000000000000008152600401611f47906142bf565b60405180910390fd5b81600260008573ffffffffffffffffffffffffffffffffffffffff1673ffffffffffffffffffffffffffffffffffffffff168152602001908152602001600020600086815260200190815260200160002060000154141561211e57600260008473ffffffffffffffffffffffffffffffffffffffff1673ffffffffffffffffffffffffffffffffffffffff16815260200190815260200160002060008581526020019081526020016000206000808201600090556001820160009055505060005b6006600086815260200190815260200160002080549050811015612118578373ffffffffffffffffffffffffffffffffffffffff1660066000878152602001908152602001600020828154811061206b5761206a614947565b5b9060005260206000200160009054906101000a900473ffffffffffffffffffffffffffffffffffffffff1673ffffffffffffffffffffffffffffffffffffffff161415612105576006600086815260200190815260200160002081815481106120d7576120d6614947565b5b9060005260206000200160006101000a81549073ffffffffffffffffffffffffffffffffffffffff02191690555b808061211090614871565b915050612011565b50612189565b81600260008573ffffffffffffffffffffffffffffffffffffffff1673ffffffffffffffffffffffffffffffffffffffff168152602001908152602001600020600086815260200190815260200160002060000160008282546121819190614724565b925050819055505b6000600260003373ffffffffffffffffffffffffffffffffffffffff1673ffffffffffffffffffffffffffffffffffffffff16815260200190815260200160002060008681526020019081526020016000206000015414156122da57604051806040016040528083815260200182815250600260003373ffffffffffffffffffffffffffffffffffffffff1673ffffffffffffffffffffffffffffffffffffffff1681526020019081526020016000206000868152602001908152602001600020600082015181600001556020820151816001015590505060066000858152602001908152602001600020339080600181540180825580915050600190039060005260206000200160009091909190916101000a81548173ffffffffffffffffffffffffffffffffffffffff021916908373ffffffffffffffffffffffffffffffffffffffff16021790555061239d565b81600260003373ffffffffffffffffffffffffffffffffffffffff1673ffffffffffffffffffffffffffffffffffffffff1681526020019081526020016000206000868152602001908152602001600020600001600082825461233d9190614643565b9250508190555080600260003373ffffffffffffffffffffffffffffffffffffffff1673ffffffffffffffffffffffffffffffffffffffff1681526020019081526020016000206000868152602001908152602001600020600101819055505b6004600085815260200190815260200160002060009054906101000a900473ffffffffffffffffffffffffffffffffffffffff1673ffffffffffffffffffffffffffffffffffffffff168373ffffffffffffffffffffffffffffffffffffffff161415612450578273ffffffffffffffffffffffffffffffffffffffff166108fc349081150290604051600060405180830381858888f1935050505015801561244a573d6000803e3d6000fd5b5061252f565b6000600a3461245f9190614699565b90506004600086815260200190815260200160002060009054906101000a900473ffffffffffffffffffffffffffffffffffffffff1673ffffffffffffffffffffffffffffffffffffffff166108fc829081150290604051600060405180830381858888f193505050501580156124da573d6000803e3d6000fd5b508373ffffffffffffffffffffffffffffffffffffffff166108fc82346125019190614724565b9081150290604051600060405180830381858888f1935050505015801561252c573d6000803e3d6000fd5b50505b50505050565b6005818154811061254557600080fd5b90600052602060002090600702016000915090508060000154908060010160009054906101000a900473ffffffffffffffffffffffffffffffffffffffff16908060020160009054906101000a900473ffffffffffffffffffffffffffffffffffffffff16908060030154908060040154908060050154908060060154905087565b60606005805480602002602001604051908101604052809291908181526020016000905b828210156126fb57838290600052602060002090600702016040518060e0016040529081600082015481526020016001820160009054906101000a900473ffffffffffffffffffffffffffffffffffffffff1673ffffffffffffffffffffffffffffffffffffffff1673ffffffffffffffffffffffffffffffffffffffff1681526020016002820160009054906101000a900473ffffffffffffffffffffffffffffffffffffffff1673ffffffffffffffffffffffffffffffffffffffff1673ffffffffffffffffffffffffffffffffffffffff168152602001600382015481526020016004820154815260200160058201548152602001600682015481525050815260200190600101906125eb565b50505050905090565b600080546127119061480e565b80601f016020809104026020016040519081016040528092919081815260200182805461273d9061480e565b801561278a5780601f1061275f5761010080835404028352916020019161278a565b820191906000526020600020905b81548152906001019060200180831161276d57829003601f168201915b505050505081565b80600360003373ffffffffffffffffffffffffffffffffffffffff1673ffffffffffffffffffffffffffffffffffffffff16815260200190815260200160002060008473ffffffffffffffffffffffffffffffffffffffff1673ffffffffffffffffffffffffffffffffffffffff16815260200190815260200160002060006101000a81548160ff0219169083151502179055508173ffffffffffffffffffffffffffffffffffffffff163373ffffffffffffffffffffffffffffffffffffffff167f17307eab39ab6107e8899845ad3d59bd9653f200f220920489ca2b5937696c31836040516128839190614262565b60405180910390a35050565b60036020528160005260406000206020528060005260406000206000915091509054906101000a900460ff1681565b60606006600083815260200190815260200160002080548060200260200160405190810160405280929190818152602001828054801561295357602002820191906000526020600020905b8160009054906101000a900473ffffffffffffffffffffffffffffffffffffffff1673ffffffffffffffffffffffffffffffffffffffff1681526020019060010190808311612909575b50505050509050919050565b60056040518060e0016040528060058054905081526020013373ffffffffffffffffffffffffffffffffffffffff1681526020018373ffffffffffffffffffffffffffffffffffffffff1681526020018581526020018481526020018781526020018681525090806001815401808255809150506001900390600052602060002090600702016000909190919091506000820151816000015560208201518160010160006101000a81548173ffffffffffffffffffffffffffffffffffffffff021916908373ffffffffffffffffffffffffffffffffffffffff16021790555060408201518160020160006101000a81548173ffffffffffffffffffffffffffffffffffffffff021916908373ffffffffffffffffffffffffffffffffffffffff160217905550606082015181600301556080820151816004015560a0820151816005015560c0820151816006015550505050505050565b60015481565b6002602052816000526040600020602052806000526040600020600091509150508060000154908060010154905082565b60046020528060005260406000206000915054906101000a900473ffffffffffffffffffffffffffffffffffffffff1681565b6000600360008473ffffffffffffffffffffffffffffffffffffffff1673ffffffffffffffffffffffffffffffffffffffff16815260200190815260200160002060008373ffffffffffffffffffffffffffffffffffffffff1673ffffffffffffffffffffffffffffffffffffffff16815260200190815260200160002060009054906101000a900460ff16905092915050565b600073ffffffffffffffffffffffffffffffffffffffff168473ffffffffffffffffffffffffffffffffffffffff161415612c25576040517f08c379a0000000000000000000000000000000000000000000000000000000008152600401612c1c9061433f565b60405180910390fd5b3373ffffffffffffffffffffffffffffffffffffffff168573ffffffffffffffffffffffffffffffffffffffff161480612cec575060011515600360008773ffffffffffffffffffffffffffffffffffffffff1673ffffffffffffffffffffffffffffffffffffffff16815260200190815260200160002060003373ffffffffffffffffffffffffffffffffffffffff1673ffffffffffffffffffffffffffffffffffffffff16815260200190815260200160002060009054906101000a900460ff161515145b612d2b576040517f08c379a0000000000000000000000000000000000000000000000000000000008152600401612d229061437f565b60405180910390fd5b81600260008773ffffffffffffffffffffffffffffffffffffffff1673ffffffffffffffffffffffffffffffffffffffff1681526020019081526020016000206000858152602001908152602001600020600001541015612dc1576040517f08c379a0000000000000000000000000000000000000000000000000000000008152600401612db89061429f565b60405180910390fd5b600082600260008873ffffffffffffffffffffffffffffffffffffffff1673ffffffffffffffffffffffffffffffffffffffff168152602001908152602001600020600086815260200190815260200160002060000154612e229190614724565b1415612f9b57600260008673ffffffffffffffffffffffffffffffffffffffff1673ffffffffffffffffffffffffffffffffffffffff16815260200190815260200160002060008481526020019081526020016000206000808201600090556001820160009055505060005b6006600085815260200190815260200160002080549050811015612f95578573ffffffffffffffffffffffffffffffffffffffff16600660008681526020019081526020016000208281548110612ee857612ee7614947565b5b9060005260206000200160009054906101000a900473ffffffffffffffffffffffffffffffffffffffff1673ffffffffffffffffffffffffffffffffffffffff161415612f8257600660008581526020019081526020016000208181548110612f5457612f53614947565b5b9060005260206000200160006101000a81549073ffffffffffffffffffffffffffffffffffffffff02191690555b8080612f8d90614871565b915050612e8e565b50613006565b81600260008773ffffffffffffffffffffffffffffffffffffffff1673ffffffffffffffffffffffffffffffffffffffff16815260200190815260200160002060008581526020019081526020016000206000016000828254612ffe9190614724565b925050819055505b6000600260008673ffffffffffffffffffffffffffffffffffffffff1673ffffffffffffffffffffffffffffffffffffffff1681526020019081526020016000206000858152602001908152602001600020600001541415613136576040518060400160405280838152602001600260008873ffffffffffffffffffffffffffffffffffffffff1673ffffffffffffffffffffffffffffffffffffffff168152602001908152602001600020600086815260200190815260200160002060010154815250600260008673ffffffffffffffffffffffffffffffffffffffff1673ffffffffffffffffffffffffffffffffffffffff168152602001908152602001600020600085815260200190815260200160002060008201518160000155602082015181600101559050506131a1565b81600260008673ffffffffffffffffffffffffffffffffffffffff1673ffffffffffffffffffffffffffffffffffffffff168152602001908152602001600020600085815260200190815260200160002060000160008282546131999190614643565b925050819055505b60066000848152602001908152602001600020849080600181540180825580915050600190039060005260206000200160009091909190916101000a81548173ffffffffffffffffffffffffffffffffffffffff021916908373ffffffffffffffffffffffffffffffffffffffff1602179055508373ffffffffffffffffffffffffffffffffffffffff168573ffffffffffffffffffffffffffffffffffffffff163373ffffffffffffffffffffffffffffffffffffffff167fc3d58168c5ae7397731d063d5bbf3d657854427343f4c083240f7aacaa2d0f62868660405161328b929190614489565b60405180910390a461329c846134f9565b15613494578373ffffffffffffffffffffffffffffffffffffffff1663f23a6e6133878686866040518663ffffffff167c01000000000000000000000000000000000000000000000000000000000281526004016132fe959493929190614167565b602060405180830381600087803b15801561331857600080fd5b505af192505050801561334957506040513d601f19601f820116820180604052508101906133469190613aab565b60015b6133ef576133556149a5565b806308c379a014156133b2575061336a614ca5565b8061337557506133b4565b806040517f08c379a00000000000000000000000000000000000000000000000000000000081526004016133a9919061427d565b60405180910390fd5b505b6040517f08c379a00000000000000000000000000000000000000000000000000000000081526004016133e6906143df565b60405180910390fd5b63f23a6e617c0100000000000000000000000000000000000000000000000000000000027bffffffffffffffffffffffffffffffffffffffffffffffffffffffff1916817bffffffffffffffffffffffffffffffffffffffffffffffffffffffff191614613492576040517f08c379a0000000000000000000000000000000000000000000000000000000008152600401613489906142ff565b60405180910390fd5b505b5050505050565b6000600260008473ffffffffffffffffffffffffffffffffffffffff1673ffffffffffffffffffffffffffffffffffffffff168152602001908152602001600020600083815260200190815260200160002060010154905092915050565b600080823b905060008163ffffffff1611915050919050565b6000613525613520846144d7565b6144b2565b90508083825260208201905082856020860282011115613548576135476149d1565b5b60005b85811015613578578161355e8882613634565b84526020840193506020830192505060018101905061354b565b5050509392505050565b600061359561359084614503565b6144b2565b905080838252602082019050828560208602820111156135b8576135b76149d1565b5b60005b858110156135e857816135ce88826137be565b8452602084019350602083019250506001810190506135bb565b5050509392505050565b60006136056136008461452f565b6144b2565b905082815260208101848484011115613621576136206149d6565b5b61362c8482856147cc565b509392505050565b60008135905061364381614d3b565b92915050565b600082601f83011261365e5761365d6149cc565b5b813561366e848260208601613512565b91505092915050565b60008083601f84011261368d5761368c6149cc565b5b8235905067ffffffffffffffff8111156136aa576136a96149c7565b5b6020830191508360208202830111156136c6576136c56149d1565b5b9250929050565b600082601f8301126136e2576136e16149cc565b5b81356136f2848260208601613582565b91505092915050565b60008135905061370a81614d52565b92915050565b60008135905061371f81614d69565b92915050565b60008151905061373481614d69565b92915050565b60008083601f8401126137505761374f6149cc565b5b8235905067ffffffffffffffff81111561376d5761376c6149c7565b5b602083019150836001820283011115613789576137886149d1565b5b9250929050565b600082601f8301126137a5576137a46149cc565b5b81356137b58482602086016135f2565b91505092915050565b6000813590506137cd81614d80565b92915050565b600080604083850312156137ea576137e96149e5565b5b60006137f885828601613634565b925050602061380985828601613634565b9150509250929050565b60008060008060008060008060a0898b031215613833576138326149e5565b5b60006138418b828c01613634565b98505060206138528b828c01613634565b975050604089013567ffffffffffffffff811115613873576138726149db565b5b61387f8b828c01613677565b9650965050606089013567ffffffffffffffff8111156138a2576138a16149db565b5b6138ae8b828c01613677565b9450945050608089013567ffffffffffffffff8111156138d1576138d06149db565b5b6138dd8b828c0161373a565b92509250509295985092959890939650565b600080600080600060a0868803121561390b5761390a6149e5565b5b600061391988828901613634565b955050602061392a88828901613634565b945050604061393b888289016137be565b935050606061394c888289016137be565b925050608086013567ffffffffffffffff81111561396d5761396c6149db565b5b61397988828901613790565b9150509295509295909350565b6000806040838503121561399d5761399c6149e5565b5b60006139ab85828601613634565b92505060206139bc858286016136fb565b9150509250929050565b600080604083850312156139dd576139dc6149e5565b5b60006139eb85828601613634565b92505060206139fc858286016137be565b9150509250929050565b60008060408385031215613a1d57613a1c6149e5565b5b600083013567ffffffffffffffff811115613a3b57613a3a6149db565b5b613a4785828601613649565b925050602083013567ffffffffffffffff811115613a6857613a676149db565b5b613a74858286016136cd565b9150509250929050565b600060208284031215613a9457613a936149e5565b5b6000613aa284828501613710565b91505092915050565b600060208284031215613ac157613ac06149e5565b5b6000613acf84828501613725565b91505092915050565b600060208284031215613aee57613aed6149e5565b5b6000613afc848285016137be565b91505092915050565b60008060008060808587031215613b1f57613b1e6149e5565b5b6000613b2d878288016137be565b9450506020613b3e87828801613634565b9350506040613b4f878288016137be565b9250506060613b60878288016137be565b91505092959194509250565b60008060408385031215613b8357613b826149e5565b5b6000613b91858286016137be565b9250506020613ba2858286016137be565b9150509250929050565b600080600080600060a08688031215613bc857613bc76149e5565b5b6000613bd6888289016137be565b9550506020613be7888289016137be565b9450506040613bf8888289016137be565b9350506060613c09888289016137be565b9250506080613c1a88828901613634565b9150509295509295909350565b6000613c338383613c6f565b60208301905092915050565b6000613c4b8383614032565b60e08301905092915050565b6000613c6383836140c0565b60208301905092915050565b613c7881614758565b82525050565b613c8781614758565b82525050565b6000613c9882614590565b613ca281856145ee565b9350613cad83614560565b8060005b83811015613cde578151613cc58882613c27565b9750613cd0836145c7565b925050600181019050613cb1565b5085935050505092915050565b6000613cf68261459b565b613d0081856145ff565b9350613d0b83614570565b8060005b83811015613d3c578151613d238882613c3f565b9750613d2e836145d4565b925050600181019050613d0f565b5085935050505092915050565b6000613d558385614610565b93507f07ffffffffffffffffffffffffffffffffffffffffffffffffffffffffffffff831115613d8857613d876149e0565b5b602083029250613d998385846147cc565b82840190509392505050565b6000613db0826145a6565b613dba8185614610565b9350613dc583614580565b8060005b83811015613df6578151613ddd8882613c57565b9750613de8836145e1565b925050600181019050613dc9565b5085935050505092915050565b613e0c8161476a565b82525050565b6000613e1e8385614621565b9350613e2b8385846147cc565b613e34836149ea565b840190509392505050565b6000613e4a826145b1565b613e548185614621565b9350613e648185602086016147db565b613e6d816149ea565b840191505092915050565b6000613e83826145bc565b613e8d8185614632565b9350613e9d8185602086016147db565b613ea6816149ea565b840191505092915050565b6000613ebe601c83614632565b9150613ec982614a24565b602082019050919050565b6000613ee1603883614632565b9150613eec82614a4d565b604082019050919050565b6000613f04602c83614632565b9150613f0f82614a9c565b604082019050919050565b6000613f27602283614632565b9150613f3282614aeb565b604082019050919050565b6000613f4a603983614632565b9150613f5582614b3a565b604082019050919050565b6000613f6d602683614632565b9150613f7882614b89565b604082019050919050565b6000613f90601d83614632565b9150613f9b82614bd8565b602082019050919050565b6000613fb3600083614632565b9150613fbe82614c01565b600082019050919050565b6000613fd6601f83614632565b9150613fe182614c04565b602082019050919050565b6000613ff9602083614632565b915061400482614c2d565b602082019050919050565b600061401c603283614632565b915061402782614c56565b604082019050919050565b60e08201600082015161404860008501826140c0565b50602082015161405b6020850182613c6f565b50604082015161406e6040850182613c6f565b50606082015161408160608501826140c0565b50608082015161409460808501826140c0565b5060a08201516140a760a08501826140c0565b5060c08201516140ba60c08501826140c0565b50505050565b6140c9816147c2565b82525050565b6140d8816147c2565b82525050565b60006020820190506140f36000830184613c7e565b92915050565b600060a08201905061410e600083018b613c7e565b61411b602083018a613c7e565b818103604083015261412e81888a613d49565b90508181036060830152614143818688613d49565b90508181036080830152614158818486613e12565b90509998505050505050505050565b600060a08201905061417c6000830188613c7e565b6141896020830187613c7e565b61419660408301866140cf565b6141a360608301856140cf565b81810360808301526141b58184613e3f565b90509695505050505050565b600060208201905081810360008301526141db8184613c8d565b905092915050565b600060208201905081810360008301526141fd8184613ceb565b905092915050565b60006040820190508181036000830152614220818688613d49565b90508181036020830152614235818486613d49565b905095945050505050565b6000602082019050818103600083015261425a8184613da5565b905092915050565b60006020820190506142776000830184613e03565b92915050565b600060208201905081810360008301526142978184613e78565b905092915050565b600060208201905081810360008301526142b881613eb1565b9050919050565b600060208201905081810360008301526142d881613ed4565b9050919050565b600060208201905081810360008301526142f881613ef7565b9050919050565b6000602082019050818103600083015261431881613f1a565b9050919050565b6000602082019050818103600083015261433881613f3d565b9050919050565b6000602082019050818103600083015261435881613f60565b9050919050565b6000602082019050818103600083015261437881613f83565b9050919050565b6000602082019050818103600083015261439881613fa6565b9050919050565b600060208201905081810360008301526143b881613fc9565b9050919050565b600060208201905081810360008301526143d881613fec565b9050919050565b600060208201905081810360008301526143f88161400f565b9050919050565b600060208201905061441460008301846140cf565b92915050565b600060e08201905061442f600083018a6140cf565b61443c6020830189613c7e565b6144496040830188613c7e565b61445660608301876140cf565b61446360808301866140cf565b61447060a08301856140cf565b61447d60c08301846140cf565b98975050505050505050565b600060408201905061449e60008301856140cf565b6144ab60208301846140cf565b9392505050565b60006144bc6144cd565b90506144c88282614840565b919050565b6000604051905090565b600067ffffffffffffffff8211156144f2576144f1614976565b5b602082029050602081019050919050565b600067ffffffffffffffff82111561451e5761451d614976565b5b602082029050602081019050919050565b600067ffffffffffffffff82111561454a57614549614976565b5b614553826149ea565b9050602081019050919050565b6000819050602082019050919050565b6000819050602082019050919050565b6000819050602082019050919050565b600081519050919050565b600081519050919050565b600081519050919050565b600081519050919050565b600081519050919050565b6000602082019050919050565b6000602082019050919050565b6000602082019050919050565b600082825260208201905092915050565b600082825260208201905092915050565b600082825260208201905092915050565b600082825260208201905092915050565b600082825260208201905092915050565b600061464e826147c2565b9150614659836147c2565b9250827fffffffffffffffffffffffffffffffffffffffffffffffffffffffffffffffff0382111561468e5761468d6148ba565b5b828201905092915050565b60006146a4826147c2565b91506146af836147c2565b9250826146bf576146be6148e9565b5b828204905092915050565b60006146d5826147c2565b91506146e0836147c2565b9250817fffffffffffffffffffffffffffffffffffffffffffffffffffffffffffffffff0483118215151615614719576147186148ba565b5b828202905092915050565b600061472f826147c2565b915061473a836147c2565b92508282101561474d5761474c6148ba565b5b828203905092915050565b6000614763826147a2565b9050919050565b60008115159050919050565b60007fffffffff0000000000000000000000000000000000000000000000000000000082169050919050565b600073ffffffffffffffffffffffffffffffffffffffff82169050919050565b6000819050919050565b82818337600083830152505050565b60005b838110156147f95780820151818401526020810190506147de565b83811115614808576000848401525b50505050565b6000600282049050600182168061482657607f821691505b6020821081141561483a57614839614918565b5b50919050565b614849826149ea565b810181811067ffffffffffffffff8211171561486857614867614976565b5b80604052505050565b600061487c826147c2565b91507fffffffffffffffffffffffffffffffffffffffffffffffffffffffffffffffff8214156148af576148ae6148ba565b5b600182019050919050565b7f4e487b7100000000000000000000000000000000000000000000000000000000600052601160045260246000fd5b7f4e487b7100000000000000000000000000000000000000000000000000000000600052601260045260246000fd5b7f4e487b7100000000000000000000000000000000000000000000000000000000600052602260045260246000fd5b7f4e487b7100000000000000000000000000000000000000000000000000000000600052603260045260246000fd5b7f4e487b7100000000000000000000000000000000000000000000000000000000600052604160045260246000fd5b600060033d11156149c45760046000803e6149c16000516149fb565b90505b90565b600080fd5b600080fd5b600080fd5b600080fd5b600080fd5b600080fd5b600080fd5b6000601f19601f8301169050919050565b60007c010000000000000000000000000000000000000000000000000000000082049050919050565b7f596f75722062616c616e636520697320696e73756666696369656e7400000000600082015250565b7f4f7661206b6f6c6963696e6120657468657265756d61206e696a6520646f766f60008201527f6c6a6e61207a61206f7675207472616e7a616b63696a75210000000000000000602082015250565b7f5468652062616c616e6365206f6620746865207265717565737465722069732060008201527f696e73756666696369656e740000000000000000000000000000000000000000602082015250565b7f4552433131353552656365697665722072656a656374656420746f6b656e732060008201527f3a28000000000000000000000000000000000000000000000000000000000000602082015250565b7f546865206c656e677468206f6620696473206e6565647320746f20626520657160008201527f75616c20746f206c656e677468206f6620616d6d6f756e747300000000000000602082015250565b7f596f752063616e2774206d616b652061207472616e7366657220746f2061646460008201527f7265737320300000000000000000000000000000000000000000000000000000602082015250565b7f596f75722062616c616e636520697320696e73756666696369656e7421000000600082015250565b50565b7f596f7520617265206e6f7420616c6c6f77656420746f20646f20746869732100600082015250565b7f416d6f756e74206e6565647320746f20626520626967676572207468616e2030600082015250565b7f596f752063616e2774207472616e7366657220746f206e6f6e2045524331313560008201527f35526563656976657220636f6e74726163740000000000000000000000000000602082015250565b600060443d1015614cb557614d38565b614cbd6144cd565b60043d036004823e80513d602482011167ffffffffffffffff82111715614ce5575050614d38565b808201805167ffffffffffffffff811115614d035750505050614d38565b80602083010160043d038501811115614d20575050505050614d38565b614d2f82602001850186614840565b82955050505050505b90565b614d4481614758565b8114614d4f57600080fd5b50565b614d5b8161476a565b8114614d6657600080fd5b50565b614d7281614776565b8114614d7d57600080fd5b50565b614d89816147c2565b8114614d9457600080fd5b5056fea26469706673582212205393fe924c044b93dc41abd035dce0555718149a6b2c44ae8acbaef17df3eea064736f6c63430008060033",
  "immutableReferences": {},
  "source": "// SPDX-License-Identifier: MIT\r\n\r\npragma solidity ^0.8.0;\r\nimport \"@openzeppelin/contracts/utils/introspection/IERC165.sol\";\r\nimport \"@openzeppelin/contracts/token/ERC1155/IERC1155Receiver.sol\";\r\n\r\ninterface IERC1155 is IERC165 {\r\n    event TransferSingle(\r\n        address indexed operator,\r\n        address indexed from,\r\n        address indexed to,\r\n        uint256 id,\r\n        uint256 value\r\n    );\r\n    event TransferBatch(\r\n        address indexed operator,\r\n        address indexed from,\r\n        address indexed to,\r\n        uint256[] ids,\r\n        uint256[] values\r\n    );\r\n    event ApprovalForAll(\r\n        address indexed account,\r\n        address indexed operator,\r\n        bool approved\r\n    );\r\n    event URI(string value, uint256 indexed id);\r\n\r\n    function balanceOf(address account, uint256 id)\r\n        external\r\n        view\r\n        returns (uint256);\r\n\r\n    function balanceOfBatch(address[] calldata accounts, uint256[] calldata ids)\r\n        external\r\n        view\r\n        returns (uint256[] memory);\r\n\r\n    function setApprovalForAll(address operator, bool approved) external;\r\n\r\n    function isApprovedForAll(address account, address operator)\r\n        external\r\n        view\r\n        returns (bool);\r\n\r\n    function safeTransferFrom(\r\n        address from,\r\n        address to,\r\n        uint256 id,\r\n        uint256 amount,\r\n        bytes calldata data\r\n    ) external;\r\n\r\n    function safeBatchTransferFrom(\r\n        address from,\r\n        address to,\r\n        uint256[] calldata ids,\r\n        uint256[] calldata amounts,\r\n        bytes calldata data\r\n    ) external;\r\n}\r\n\r\ncontract ERC1155 is IERC1155 {\r\n    struct Token {\r\n        uint256 balance;\r\n        uint256 price;\r\n    }\r\n    struct SwapRequest {\r\n        uint256 id;\r\n        address initializer;\r\n        address confirmer;\r\n        uint256 confirmerTokenId;\r\n        uint256 confirmerAmount;\r\n        uint256 initializerTokenId;\r\n        uint256 initializerAmount;\r\n    }\r\n    string public baseUri = \"\";\r\n    uint256 public lastId = 1;\r\n    //address => tokenId => amount\r\n    mapping(address => mapping(uint256 => Token)) public balances;\r\n    //real owner => account => is allowed to spend owners balance? yes | no\r\n    mapping(address => mapping(address => bool)) public approvals;\r\n    //tokenId => creator of the token\r\n    mapping(uint256 => address) public creators;\r\n    //array of swap requests\r\n    SwapRequest[] public requests;\r\n    //tokenId => owners\r\n    mapping(uint256 => address[]) owners;\r\n\r\n    constructor(string memory uri) {\r\n        baseUri = uri;\r\n    }\r\n\r\n    function balanceOf(address account, uint256 id)\r\n        public\r\n        view\r\n        override\r\n        returns (uint256)\r\n    {\r\n        return balances[account][id].balance;\r\n    }\r\n\r\n    function priceOf(address account, uint256 id)\r\n        public\r\n        view\r\n        returns (uint256)\r\n    {\r\n        return balances[account][id].price;\r\n    }\r\n\r\n    function getRequests() public view returns (SwapRequest[] memory) {\r\n        return requests;\r\n    }\r\n\r\n    function creatorOf(uint256 id) public view returns (address) {\r\n        return creators[id];\r\n    }\r\n\r\n    function ownersOf(uint256 tokenId) public view returns (address[] memory) {\r\n        return owners[tokenId];\r\n    }\r\n\r\n    function balanceOfBatch(address[] memory accounts, uint256[] memory ids)\r\n        public\r\n        view\r\n        override\r\n        returns (uint256[] memory)\r\n    {\r\n        require(\r\n            accounts.length == ids.length,\r\n            \"The length of ids needs to be equal to length of ammounts\"\r\n        );\r\n        uint256[] memory batchBalances = new uint256[](accounts.length);\r\n        for (uint256 i = 0; i <= accounts.length; i++) {\r\n            batchBalances[i] = balanceOf(accounts[i], ids[i]);\r\n        }\r\n        return batchBalances;\r\n    }\r\n\r\n    function setApprovalForAll(address operator, bool approved)\r\n        public\r\n        override\r\n    {\r\n        approvals[msg.sender][operator] = approved;\r\n        emit ApprovalForAll(msg.sender, operator, approved);\r\n    }\r\n\r\n    function isApprovedForAll(address account, address operator)\r\n        public\r\n        view\r\n        override\r\n        returns (bool)\r\n    {\r\n        return approvals[account][operator];\r\n    }\r\n\r\n    function safeTransferFrom(\r\n        address from,\r\n        address to,\r\n        uint256 id,\r\n        uint256 amount,\r\n        bytes memory data\r\n    ) public override {\r\n        require(to != address(0), \"You can't make a transfer to address 0\");\r\n        require(from == msg.sender || approvals[from][msg.sender] == true, \"\");\r\n        require(\r\n            balances[from][id].balance >= amount,\r\n            \"Your balance is insufficient\"\r\n        );\r\n        if (balances[from][id].balance - amount == 0) {\r\n            delete balances[from][id];\r\n            //removes the address from the owners array\r\n            for (uint256 i = 0; i < owners[id].length; i++) {\r\n                if (owners[id][i] == from) {\r\n                    delete owners[id][i];\r\n                }\r\n            }\r\n        } else {\r\n            balances[from][id].balance -= amount;\r\n        }\r\n        if (balances[to][id].balance == 0) {\r\n            balances[to][id] = Token(amount, balances[from][id].price);\r\n        } else {\r\n            balances[to][id].balance += amount;\r\n        }\r\n        owners[id].push(to);\r\n\r\n        emit TransferSingle(msg.sender, from, to, id, amount);\r\n        if (isContract(to)) {\r\n            try\r\n                IERC1155Receiver(to).onERC1155Received(\r\n                    msg.sender,\r\n                    from,\r\n                    id,\r\n                    amount,\r\n                    data\r\n                )\r\n            returns (bytes4 response) {\r\n                if (response != IERC1155Receiver.onERC1155Received.selector) {\r\n                    revert(\"ERC1155Receiver rejected tokens :(\");\r\n                }\r\n            } catch Error(string memory reason) {\r\n                revert(reason);\r\n            } catch {\r\n                revert(\"You can't transfer to non ERC1155Receiver contract\");\r\n            }\r\n        }\r\n    }\r\n\r\n    function safeBatchTransferFrom(\r\n        address from,\r\n        address to,\r\n        uint256[] calldata ids,\r\n        uint256[] calldata amounts,\r\n        bytes calldata data\r\n    ) public override {\r\n        require(to != address(0), \"You can't make a transfer to address 0\");\r\n        require(\r\n            ids.length == amounts.length,\r\n            \"The length of ids needs to be equal to length of ammounts\"\r\n        );\r\n        for (uint256 i = 0; i <= ids.length; i++) {\r\n            require(\r\n                msg.sender == from || approvals[from][msg.sender] == true,\r\n                \"You are not allowed to do this!\"\r\n            );\r\n            require(\r\n                balances[from][ids[i]].balance >= amounts[i],\r\n                \"Your balance is insufficient!\"\r\n            );\r\n            if (balances[from][ids[i]].balance - amounts[i] == 0) {\r\n                delete balances[from][ids[i]];\r\n                //removes the address from the owners array\r\n                for (uint256 j = 0; j < owners[ids[i]].length; j++) {\r\n                    if (owners[ids[i]][j] == from) {\r\n                        delete owners[ids[i]][j];\r\n                    }\r\n                }\r\n            } else {\r\n                balances[from][ids[i]].balance -= amounts[i];\r\n            }\r\n            balances[to][ids[i]].balance += amounts[i];\r\n        }\r\n        emit TransferBatch(msg.sender, from, to, ids, amounts);\r\n        if (isContract(to)) {\r\n            try\r\n                IERC1155Receiver(to).onERC1155BatchReceived(\r\n                    msg.sender,\r\n                    from,\r\n                    ids,\r\n                    amounts,\r\n                    data\r\n                )\r\n            returns (bytes4 response) {\r\n                if (\r\n                    response != IERC1155Receiver.onERC1155BatchReceived.selector\r\n                ) {\r\n                    revert(\"ERC1155Receiver rejected tokens :(\");\r\n                }\r\n            } catch Error(string memory reason) {\r\n                revert(reason);\r\n            } catch {\r\n                revert(\"You can't transfer to non ERC1155Receiver contract\");\r\n            }\r\n        }\r\n    }\r\n\r\n    function mint(uint256 amount, uint256 price) public {\r\n        require(amount > 0, \"Amount needs to be bigger than 0\");\r\n        balances[msg.sender][lastId] = Token(amount, price);\r\n        creators[lastId] = msg.sender;\r\n        owners[lastId].push(msg.sender);\r\n        lastId++;\r\n    }\r\n\r\n    function buy(\r\n        uint256 tokenId,\r\n        address from,\r\n        uint256 amount,\r\n        uint256 sellPrice\r\n    ) public payable {\r\n        require(\r\n            msg.value >= balances[from][tokenId].price * amount,\r\n            \"Ova kolicina ethereuma nije dovoljna za ovu tranzakciju!\"\r\n        );\r\n        //checks if the seller sold all of his tokens\r\n        if (balances[from][tokenId].balance == amount) {\r\n            delete balances[from][tokenId];\r\n            //removes the address from the owners array\r\n            for (uint256 i = 0; i < owners[tokenId].length; i++) {\r\n                if (owners[tokenId][i] == from) {\r\n                    delete owners[tokenId][i];\r\n                }\r\n            }\r\n        } else {\r\n            balances[from][tokenId].balance -= amount;\r\n        }\r\n        if (balances[msg.sender][tokenId].balance == 0) {\r\n            balances[msg.sender][tokenId] = Token(amount, sellPrice);\r\n            owners[tokenId].push(msg.sender);\r\n        } else {\r\n            balances[msg.sender][tokenId].balance += amount;\r\n            balances[msg.sender][tokenId].price = sellPrice;\r\n        }\r\n        if (from == creators[tokenId]) {\r\n            payable(from).transfer(msg.value);\r\n        } else {\r\n            uint256 fee = msg.value / 10;\r\n            payable(creators[tokenId]).transfer(fee);\r\n            payable(from).transfer(msg.value - fee);\r\n        }\r\n    }\r\n\r\n    function createSwapRequest(\r\n        uint256 yourTokenId,\r\n        uint256 yourAmount,\r\n        uint256 confirmerTokenId,\r\n        uint256 confirmerAmount,\r\n        address confirmer\r\n    ) public {\r\n        requests.push(\r\n            SwapRequest(\r\n                requests.length,\r\n                msg.sender,\r\n                confirmer,\r\n                confirmerTokenId,\r\n                confirmerAmount,\r\n                yourTokenId,\r\n                yourAmount\r\n            )\r\n        );\r\n    }\r\n\r\n    function confirmSwapRequest(uint256 swapRequestId) public {\r\n        //sending to initializer\r\n        SwapRequest memory request = requests[swapRequestId];\r\n        require(msg.sender == request.confirmer);\r\n        require(\r\n            balances[msg.sender][request.confirmerTokenId].balance >=\r\n                request.confirmerAmount,\r\n            \"Your balance is insufficient\"\r\n        );\r\n        require(\r\n            balances[request.initializer][request.initializerTokenId].balance >=\r\n                request.initializerAmount,\r\n            \"The balance of the requester is insufficient\"\r\n        );\r\n        if (\r\n            balances[request.initializer][request.confirmerTokenId].balance == 0\r\n        ) {\r\n            balances[request.initializer][request.confirmerTokenId] = Token(\r\n                request.confirmerAmount,\r\n                balances[request.confirmer][request.confirmerTokenId].price\r\n            );\r\n        } else {\r\n            balances[request.initializer][request.confirmerTokenId]\r\n                .balance += request.confirmerAmount;\r\n        }\r\n        if (\r\n            balances[msg.sender][request.confirmerTokenId].balance -\r\n                request.confirmerAmount ==\r\n            0\r\n        ) {\r\n            delete balances[msg.sender][request.confirmerTokenId];\r\n            //removes the address from the owners array\r\n            for (\r\n                uint256 i = 0;\r\n                i < owners[request.confirmerTokenId].length;\r\n                i++\r\n            ) {\r\n                if (owners[request.confirmerTokenId][i] == msg.sender) {\r\n                    delete owners[request.confirmerTokenId][i];\r\n                }\r\n            }\r\n        } else {\r\n            balances[msg.sender][request.confirmerTokenId].balance -= request\r\n                .confirmerAmount;\r\n        }\r\n        owners[request.confirmerTokenId].push(request.initializer);\r\n\r\n        //sending to confirmer\r\n        if (\r\n            balances[request.confirmer][request.initializerTokenId].balance == 0\r\n        ) {\r\n            balances[request.confirmer][request.initializerTokenId] = Token(\r\n                request.initializerAmount,\r\n                balances[request.initializer][request.initializerTokenId].price\r\n            );\r\n        } else {\r\n            balances[request.confirmer][request.initializerTokenId]\r\n                .balance += request.initializerAmount;\r\n        }\r\n        if (\r\n            balances[request.initializer][request.initializerTokenId].balance -\r\n                request.initializerAmount ==\r\n            0\r\n        ) {\r\n            delete balances[request.initializer][request.initializerTokenId];\r\n            //removes the address from the owners array\r\n            for (\r\n                uint256 i = 0;\r\n                i < owners[request.initializerTokenId].length;\r\n                i++\r\n            ) {\r\n                if (\r\n                    owners[request.initializerTokenId][i] == request.initializer\r\n                ) {\r\n                    delete owners[request.initializerTokenId][i];\r\n                }\r\n            }\r\n        } else {\r\n            balances[request.initializer][request.initializerTokenId]\r\n                .balance -= request.initializerAmount;\r\n        }\r\n        owners[request.initializerTokenId].push(request.confirmer);\r\n        delete requests[swapRequestId];\r\n    }\r\n\r\n    function supportsInterface(bytes4 interfaceId)\r\n        public\r\n        view\r\n        override\r\n        returns (bool)\r\n    {\r\n        return interfaceId == type(IERC1155).interfaceId;\r\n    }\r\n\r\n    function isContract(address _address) private returns (bool) {\r\n        uint32 size;\r\n        assembly {\r\n            size := extcodesize(_address)\r\n        }\r\n        return (size > 0);\r\n    }\r\n}\r\n",
  "sourcePath": "C:/Users/sakac/Desktop/NFTv2/contract/contracts/ERC1155.sol",
  "compiler": {
    "name": "solc",
    "version": "0.8.6+commit.11564f7e.Emscripten.clang"
  },
  "schemaVersion": "3.3.4",
  "updatedAt": "2021-08-04T14:05:51.815Z",
  "networkType": "ethereum",
  "devdoc": {
    "kind": "dev",
    "methods": {
      "supportsInterface(bytes4)": {
        "details": "Returns true if this contract implements the interface defined by `interfaceId`. See the corresponding https://eips.ethereum.org/EIPS/eip-165#how-interfaces-are-identified[EIP section] to learn more about how these ids are created. This function call must use less than 30 000 gas."
      }
    },
    "version": 1
  },
  "userdoc": {
    "kind": "user",
    "methods": {},
    "version": 1
  }
}