{
  "contractName": "ERC1155",
  "abi": [
    {
      "inputs": [
        {
          "internalType": "string",
          "name": "uri",
          "type": "string"
        }
      ],
      "stateMutability": "nonpayable",
      "type": "constructor"
    },
    {
      "anonymous": false,
      "inputs": [
        {
          "indexed": true,
          "internalType": "address",
          "name": "account",
          "type": "address"
        },
        {
          "indexed": true,
          "internalType": "address",
          "name": "operator",
          "type": "address"
        },
        {
          "indexed": false,
          "internalType": "bool",
          "name": "approved",
          "type": "bool"
        }
      ],
      "name": "ApprovalForAll",
      "type": "event"
    },
    {
      "anonymous": false,
      "inputs": [
        {
          "indexed": true,
          "internalType": "address",
          "name": "operator",
          "type": "address"
        },
        {
          "indexed": true,
          "internalType": "address",
          "name": "from",
          "type": "address"
        },
        {
          "indexed": true,
          "internalType": "address",
          "name": "to",
          "type": "address"
        },
        {
          "indexed": false,
          "internalType": "uint256[]",
          "name": "ids",
          "type": "uint256[]"
        },
        {
          "indexed": false,
          "internalType": "uint256[]",
          "name": "values",
          "type": "uint256[]"
        }
      ],
      "name": "TransferBatch",
      "type": "event"
    },
    {
      "anonymous": false,
      "inputs": [
        {
          "indexed": true,
          "internalType": "address",
          "name": "operator",
          "type": "address"
        },
        {
          "indexed": true,
          "internalType": "address",
          "name": "from",
          "type": "address"
        },
        {
          "indexed": true,
          "internalType": "address",
          "name": "to",
          "type": "address"
        },
        {
          "indexed": false,
          "internalType": "uint256",
          "name": "id",
          "type": "uint256"
        },
        {
          "indexed": false,
          "internalType": "uint256",
          "name": "value",
          "type": "uint256"
        }
      ],
      "name": "TransferSingle",
      "type": "event"
    },
    {
      "anonymous": false,
      "inputs": [
        {
          "indexed": false,
          "internalType": "string",
          "name": "value",
          "type": "string"
        },
        {
          "indexed": true,
          "internalType": "uint256",
          "name": "id",
          "type": "uint256"
        }
      ],
      "name": "URI",
      "type": "event"
    },
    {
      "inputs": [
        {
          "internalType": "address",
          "name": "",
          "type": "address"
        },
        {
          "internalType": "address",
          "name": "",
          "type": "address"
        }
      ],
      "name": "approvals",
      "outputs": [
        {
          "internalType": "bool",
          "name": "",
          "type": "bool"
        }
      ],
      "stateMutability": "view",
      "type": "function",
      "constant": true
    },
    {
      "inputs": [
        {
          "internalType": "address",
          "name": "",
          "type": "address"
        },
        {
          "internalType": "uint256",
          "name": "",
          "type": "uint256"
        }
      ],
      "name": "balances",
      "outputs": [
        {
          "internalType": "uint256",
          "name": "balance",
          "type": "uint256"
        },
        {
          "internalType": "uint256",
          "name": "price",
          "type": "uint256"
        }
      ],
      "stateMutability": "view",
      "type": "function",
      "constant": true
    },
    {
      "inputs": [],
      "name": "baseUri",
      "outputs": [
        {
          "internalType": "string",
          "name": "",
          "type": "string"
        }
      ],
      "stateMutability": "view",
      "type": "function",
      "constant": true
    },
    {
      "inputs": [
        {
          "internalType": "uint256",
          "name": "",
          "type": "uint256"
        }
      ],
      "name": "creators",
      "outputs": [
        {
          "internalType": "address",
          "name": "",
          "type": "address"
        }
      ],
      "stateMutability": "view",
      "type": "function",
      "constant": true
    },
    {
      "inputs": [],
      "name": "lastId",
      "outputs": [
        {
          "internalType": "uint256",
          "name": "",
          "type": "uint256"
        }
      ],
      "stateMutability": "view",
      "type": "function",
      "constant": true
    },
    {
      "inputs": [
        {
          "internalType": "uint256",
          "name": "",
          "type": "uint256"
        }
      ],
      "name": "requests",
      "outputs": [
        {
          "internalType": "uint256",
          "name": "id",
          "type": "uint256"
        },
        {
          "internalType": "address",
          "name": "initializer",
          "type": "address"
        },
        {
          "internalType": "address",
          "name": "confirmer",
          "type": "address"
        },
        {
          "internalType": "uint256",
          "name": "confirmerTokenId",
          "type": "uint256"
        },
        {
          "internalType": "uint256",
          "name": "confirmerAmount",
          "type": "uint256"
        },
        {
          "internalType": "uint256",
          "name": "initializerTokenId",
          "type": "uint256"
        },
        {
          "internalType": "uint256",
          "name": "initializerAmount",
          "type": "uint256"
        }
      ],
      "stateMutability": "view",
      "type": "function",
      "constant": true
    },
    {
      "inputs": [
        {
          "internalType": "address",
          "name": "account",
          "type": "address"
        },
        {
          "internalType": "uint256",
          "name": "id",
          "type": "uint256"
        }
      ],
      "name": "balanceOf",
      "outputs": [
        {
          "internalType": "uint256",
          "name": "",
          "type": "uint256"
        }
      ],
      "stateMutability": "view",
      "type": "function",
      "constant": true
    },
    {
      "inputs": [
        {
          "internalType": "address",
          "name": "account",
          "type": "address"
        },
        {
          "internalType": "uint256",
          "name": "id",
          "type": "uint256"
        }
      ],
      "name": "priceOf",
      "outputs": [
        {
          "internalType": "uint256",
          "name": "",
          "type": "uint256"
        }
      ],
      "stateMutability": "view",
      "type": "function",
      "constant": true
    },
    {
      "inputs": [],
      "name": "getRequests",
      "outputs": [
        {
          "components": [
            {
              "internalType": "uint256",
              "name": "id",
              "type": "uint256"
            },
            {
              "internalType": "address",
              "name": "initializer",
              "type": "address"
            },
            {
              "internalType": "address",
              "name": "confirmer",
              "type": "address"
            },
            {
              "internalType": "uint256",
              "name": "confirmerTokenId",
              "type": "uint256"
            },
            {
              "internalType": "uint256",
              "name": "confirmerAmount",
              "type": "uint256"
            },
            {
              "internalType": "uint256",
              "name": "initializerTokenId",
              "type": "uint256"
            },
            {
              "internalType": "uint256",
              "name": "initializerAmount",
              "type": "uint256"
            }
          ],
          "internalType": "struct ERC1155.SwapRequest[]",
          "name": "",
          "type": "tuple[]"
        }
      ],
      "stateMutability": "view",
      "type": "function",
      "constant": true
    },
    {
      "inputs": [
        {
          "internalType": "uint256",
          "name": "id",
          "type": "uint256"
        }
      ],
      "name": "creatorOf",
      "outputs": [
        {
          "internalType": "address",
          "name": "",
          "type": "address"
        }
      ],
      "stateMutability": "view",
      "type": "function",
      "constant": true
    },
    {
      "inputs": [
        {
          "internalType": "uint256",
          "name": "tokenId",
          "type": "uint256"
        }
      ],
      "name": "ownersOf",
      "outputs": [
        {
          "internalType": "address[]",
          "name": "",
          "type": "address[]"
        }
      ],
      "stateMutability": "view",
      "type": "function",
      "constant": true
    },
    {
      "inputs": [
        {
          "internalType": "address[]",
          "name": "accounts",
          "type": "address[]"
        },
        {
          "internalType": "uint256[]",
          "name": "ids",
          "type": "uint256[]"
        }
      ],
      "name": "balanceOfBatch",
      "outputs": [
        {
          "internalType": "uint256[]",
          "name": "",
          "type": "uint256[]"
        }
      ],
      "stateMutability": "view",
      "type": "function",
      "constant": true
    },
    {
      "inputs": [
        {
          "internalType": "address",
          "name": "operator",
          "type": "address"
        },
        {
          "internalType": "bool",
          "name": "approved",
          "type": "bool"
        }
      ],
      "name": "setApprovalForAll",
      "outputs": [],
      "stateMutability": "nonpayable",
      "type": "function"
    },
    {
      "inputs": [
        {
          "internalType": "address",
          "name": "account",
          "type": "address"
        },
        {
          "internalType": "address",
          "name": "operator",
          "type": "address"
        }
      ],
      "name": "isApprovedForAll",
      "outputs": [
        {
          "internalType": "bool",
          "name": "",
          "type": "bool"
        }
      ],
      "stateMutability": "view",
      "type": "function",
      "constant": true
    },
    {
      "inputs": [
        {
          "internalType": "address",
          "name": "from",
          "type": "address"
        },
        {
          "internalType": "address",
          "name": "to",
          "type": "address"
        },
        {
          "internalType": "uint256",
          "name": "id",
          "type": "uint256"
        },
        {
          "internalType": "uint256",
          "name": "amount",
          "type": "uint256"
        },
        {
          "internalType": "bytes",
          "name": "data",
          "type": "bytes"
        }
      ],
      "name": "safeTransferFrom",
      "outputs": [],
      "stateMutability": "nonpayable",
      "type": "function"
    },
    {
      "inputs": [
        {
          "internalType": "address",
          "name": "from",
          "type": "address"
        },
        {
          "internalType": "address",
          "name": "to",
          "type": "address"
        },
        {
          "internalType": "uint256[]",
          "name": "ids",
          "type": "uint256[]"
        },
        {
          "internalType": "uint256[]",
          "name": "amounts",
          "type": "uint256[]"
        },
        {
          "internalType": "bytes",
          "name": "data",
          "type": "bytes"
        }
      ],
      "name": "safeBatchTransferFrom",
      "outputs": [],
      "stateMutability": "nonpayable",
      "type": "function"
    },
    {
      "inputs": [
        {
          "internalType": "uint256",
          "name": "amount",
          "type": "uint256"
        },
        {
          "internalType": "uint256",
          "name": "price",
          "type": "uint256"
        }
      ],
      "name": "mint",
      "outputs": [],
      "stateMutability": "nonpayable",
      "type": "function"
    },
    {
      "inputs": [
        {
          "internalType": "uint256",
          "name": "tokenId",
          "type": "uint256"
        },
        {
          "internalType": "address",
          "name": "from",
          "type": "address"
        },
        {
          "internalType": "uint256",
          "name": "amount",
          "type": "uint256"
        },
        {
          "internalType": "uint256",
          "name": "sellPrice",
          "type": "uint256"
        }
      ],
      "name": "buy",
      "outputs": [],
      "stateMutability": "payable",
      "type": "function",
      "payable": true
    },
    {
      "inputs": [
        {
          "internalType": "uint256",
          "name": "yourTokenId",
          "type": "uint256"
        },
        {
          "internalType": "uint256",
          "name": "yourAmount",
          "type": "uint256"
        },
        {
          "internalType": "uint256",
          "name": "confirmerTokenId",
          "type": "uint256"
        },
        {
          "internalType": "uint256",
          "name": "confirmerAmount",
          "type": "uint256"
        },
        {
          "internalType": "address",
          "name": "confirmer",
          "type": "address"
        }
      ],
      "name": "createSwapRequest",
      "outputs": [],
      "stateMutability": "nonpayable",
      "type": "function"
    },
    {
      "inputs": [
        {
          "internalType": "uint256",
          "name": "swapRequestId",
          "type": "uint256"
        }
      ],
      "name": "confirmSwapRequest",
      "outputs": [],
      "stateMutability": "nonpayable",
      "type": "function"
    },
    {
      "inputs": [
        {
          "internalType": "bytes4",
          "name": "interfaceId",
          "type": "bytes4"
        }
      ],
      "name": "supportsInterface",
      "outputs": [
        {
          "internalType": "bool",
          "name": "",
          "type": "bool"
        }
      ],
      "stateMutability": "view",
      "type": "function",
      "constant": true
    }
  ],
  "bytecode": "0x608060405260405180602001604052806000815250600090805190602001906200002b92919062000083565b50600180553480156200003d57600080fd5b5060405162004cfd38038062004cfd8339818101604052810190620000639190620001b1565b80600090805190602001906200007b92919062000083565b505062000386565b828054620000919062000297565b90600052602060002090601f016020900481019282620000b5576000855562000101565b82601f10620000d057805160ff191683800117855562000101565b8280016001018555821562000101579182015b8281111562000100578251825591602001919060010190620000e3565b5b50905062000110919062000114565b5090565b5b808211156200012f57600081600090555060010162000115565b5090565b60006200014a62000144846200022b565b62000202565b90508281526020810184848401111562000169576200016862000366565b5b6200017684828562000261565b509392505050565b600082601f83011262000196576200019562000361565b5b8151620001a884826020860162000133565b91505092915050565b600060208284031215620001ca57620001c962000370565b5b600082015167ffffffffffffffff811115620001eb57620001ea6200036b565b5b620001f9848285016200017e565b91505092915050565b60006200020e62000221565b90506200021c8282620002cd565b919050565b6000604051905090565b600067ffffffffffffffff82111562000249576200024862000332565b5b620002548262000375565b9050602081019050919050565b60005b838110156200028157808201518184015260208101905062000264565b8381111562000291576000848401525b50505050565b60006002820490506001821680620002b057607f821691505b60208210811415620002c757620002c662000303565b5b50919050565b620002d88262000375565b810181811067ffffffffffffffff82111715620002fa57620002f962000332565b5b80604052505050565b7f4e487b7100000000000000000000000000000000000000000000000000000000600052602260045260246000fd5b7f4e487b7100000000000000000000000000000000000000000000000000000000600052604160045260246000fd5b600080fd5b600080fd5b600080fd5b600080fd5b6000601f19601f8301169050919050565b61496780620003966000396000f3fe608060405260043610610146576000357c0100000000000000000000000000000000000000000000000000000000900480639abc8320116100c8578063c1292cc31161008c578063c1292cc31461043b578063cbf1304d14610466578063cd53d08e146104a4578063e985e9c5146104e1578063f242432a1461051e578063fc3d545d1461054757610146565b80639abc832014610344578063a22cb4651461036f578063a32ce11e14610398578063a584ab29146103d5578063a60913a01461041257610146565b80634e1273f41161010f5780634e1273f414610240578063589a17431461027d578063706910ff146102ba57806381d12c58146102d65780638813ce121461031957610146565b8062fdd58e1461014b57806301ffc9a7146101885780631b2ef1ca146101c557806320e972b9146101ee5780632eb2c2d614610217575b600080fd5b34801561015757600080fd5b50610172600480360381019061016d9190613560565b610584565b60405161017f9190613f99565b60405180910390f35b34801561019457600080fd5b506101af60048036038101906101aa9190613618565b6105e2565b6040516101bc9190613dfc565b60405180910390f35b3480156101d157600080fd5b506101ec60048036038101906101e79190613706565b61064c565b005b3480156101fa57600080fd5b5061021560048036038101906102109190613672565b6107f3565b005b34801561022357600080fd5b5061023e600480360381019061023991906133ad565b611140565b005b34801561024c57600080fd5b50610267600480360381019061026291906135a0565b611a23565b6040516102749190613dda565b60405180910390f35b34801561028957600080fd5b506102a4600480360381019061029f9190613672565b611b3d565b6040516102b19190613c78565b60405180910390f35b6102d460048036038101906102cf919061369f565b611b7a565b005b3480156102e257600080fd5b506102fd60048036038101906102f89190613672565b612200565b6040516103109796959493929190613fb4565b60405180910390f35b34801561032557600080fd5b5061032e612292565b60405161033b9190613d7d565b60405180910390f35b34801561035057600080fd5b506103596123cf565b6040516103669190613e17565b60405180910390f35b34801561037b57600080fd5b5061039660048036038101906103919190613520565b61245d565b005b3480156103a457600080fd5b506103bf60048036038101906103ba919061336d565b61255a565b6040516103cc9190613dfc565b60405180910390f35b3480156103e157600080fd5b506103fc60048036038101906103f79190613672565b612589565b6040516104099190613d5b565b60405180910390f35b34801561041e57600080fd5b5061043960048036038101906104349190613746565b61262a565b005b34801561044757600080fd5b50610450612782565b60405161045d9190613f99565b60405180910390f35b34801561047257600080fd5b5061048d60048036038101906104889190613560565b612788565b60405161049b929190614023565b60405180910390f35b3480156104b057600080fd5b506104cb60048036038101906104c69190613672565b6127b9565b6040516104d89190613c78565b60405180910390f35b3480156104ed57600080fd5b506105086004803603810190610503919061336d565b6127ec565b6040516105159190613dfc565b60405180910390f35b34801561052a57600080fd5b5061054560048036038101906105409190613489565b612880565b005b34801561055357600080fd5b5061056e60048036038101906105699190613560565b613035565b60405161057b9190613f99565b60405180910390f35b6000600260008473ffffffffffffffffffffffffffffffffffffffff1673ffffffffffffffffffffffffffffffffffffffff168152602001908152602001600020600083815260200190815260200160002060000154905092915050565b60007fd9b67a26000000000000000000000000000000000000000000000000000000007bffffffffffffffffffffffffffffffffffffffffffffffffffffffff1916827bffffffffffffffffffffffffffffffffffffffffffffffffffffffff1916149050919050565b6000821161068f576040517f08c379a000000000000000000000000000000000000000000000000000000000815260040161068690613f59565b60405180910390fd5b604051806040016040528083815260200182815250600260003373ffffffffffffffffffffffffffffffffffffffff1673ffffffffffffffffffffffffffffffffffffffff1681526020019081526020016000206000600154815260200190815260200160002060008201518160000155602082015181600101559050503360046000600154815260200190815260200160002060006101000a81548173ffffffffffffffffffffffffffffffffffffffff021916908373ffffffffffffffffffffffffffffffffffffffff160217905550600660006001548152602001908152602001600020339080600181540180825580915050600190039060005260206000200160009091909190916101000a81548173ffffffffffffffffffffffffffffffffffffffff021916908373ffffffffffffffffffffffffffffffffffffffff160217905550600160008154809291906107ea9061440b565b91905055505050565b600060058281548110610809576108086144e1565b5b90600052602060002090600702016040518060e0016040529081600082015481526020016001820160009054906101000a900473ffffffffffffffffffffffffffffffffffffffff1673ffffffffffffffffffffffffffffffffffffffff1673ffffffffffffffffffffffffffffffffffffffff1681526020016002820160009054906101000a900473ffffffffffffffffffffffffffffffffffffffff1673ffffffffffffffffffffffffffffffffffffffff1673ffffffffffffffffffffffffffffffffffffffff1681526020016003820154815260200160048201548152602001600582015481526020016006820154815250509050806040015173ffffffffffffffffffffffffffffffffffffffff163373ffffffffffffffffffffffffffffffffffffffff161461093e57600080fd5b8060800151600260003373ffffffffffffffffffffffffffffffffffffffff1673ffffffffffffffffffffffffffffffffffffffff1681526020019081526020016000206000836060015181526020019081526020016000206000015410156109dc576040517f08c379a00000000000000000000000000000000000000000000000000000000081526004016109d390613e39565b60405180910390fd5b8060c0015160026000836020015173ffffffffffffffffffffffffffffffffffffffff1673ffffffffffffffffffffffffffffffffffffffff16815260200190815260200160002060008360a001518152602001908152602001600020600001541015610a7e576040517f08c379a0000000000000000000000000000000000000000000000000000000008152600401610a7590613e79565b60405180910390fd5b60008160800151600260003373ffffffffffffffffffffffffffffffffffffffff1673ffffffffffffffffffffffffffffffffffffffff16815260200190815260200160002060008460600151815260200190815260200160002060000154610ae791906142be565b1415610c7057600260003373ffffffffffffffffffffffffffffffffffffffff1673ffffffffffffffffffffffffffffffffffffffff1681526020019081526020016000206000826060015181526020019081526020016000206000808201600090556001820160009055505060005b600660008360600151815260200190815260200160002080549050811015610c6a573373ffffffffffffffffffffffffffffffffffffffff1660066000846060015181526020019081526020016000208281548110610bb957610bb86144e1565b5b9060005260206000200160009054906101000a900473ffffffffffffffffffffffffffffffffffffffff1673ffffffffffffffffffffffffffffffffffffffff161415610c575760066000836060015181526020019081526020016000208181548110610c2957610c286144e1565b5b9060005260206000200160006101000a81549073ffffffffffffffffffffffffffffffffffffffff02191690555b8080610c629061440b565b915050610b57565b50610ce3565b8060800151600260003373ffffffffffffffffffffffffffffffffffffffff1673ffffffffffffffffffffffffffffffffffffffff1681526020019081526020016000206000836060015181526020019081526020016000206000016000828254610cdb91906142be565b925050819055505b806080015160026000836020015173ffffffffffffffffffffffffffffffffffffffff1673ffffffffffffffffffffffffffffffffffffffff1681526020019081526020016000206000836060015181526020019081526020016000206000016000828254610d5291906141dd565b92505081905550600660008260600151815260200190815260200160002081602001519080600181540180825580915050600190039060005260206000200160009091909190916101000a81548173ffffffffffffffffffffffffffffffffffffffff021916908373ffffffffffffffffffffffffffffffffffffffff16021790555060008160c0015160026000846020015173ffffffffffffffffffffffffffffffffffffffff1673ffffffffffffffffffffffffffffffffffffffff16815260200190815260200160002060008460a00151815260200190815260200160002060000154610e4291906142be565b1415610fd35760026000826020015173ffffffffffffffffffffffffffffffffffffffff1673ffffffffffffffffffffffffffffffffffffffff16815260200190815260200160002060008260a0015181526020019081526020016000206000808201600090556001820160009055505060005b600660008360a00151815260200190815260200160002080549050811015610fcd57816020015173ffffffffffffffffffffffffffffffffffffffff16600660008460a0015181526020019081526020016000208281548110610f1c57610f1b6144e1565b5b9060005260206000200160009054906101000a900473ffffffffffffffffffffffffffffffffffffffff1673ffffffffffffffffffffffffffffffffffffffff161415610fba57600660008360a0015181526020019081526020016000208181548110610f8c57610f8b6144e1565b5b9060005260206000200160006101000a81549073ffffffffffffffffffffffffffffffffffffffff02191690555b8080610fc59061440b565b915050610eb6565b5061104a565b8060c0015160026000836020015173ffffffffffffffffffffffffffffffffffffffff1673ffffffffffffffffffffffffffffffffffffffff16815260200190815260200160002060008360a001518152602001908152602001600020600001600082825461104291906142be565b925050819055505b8060c0015160026000836040015173ffffffffffffffffffffffffffffffffffffffff1673ffffffffffffffffffffffffffffffffffffffff16815260200190815260200160002060008360a00151815260200190815260200160002060000160008282546110b991906141dd565b92505081905550600660008260a00151815260200190815260200160002081604001519080600181540180825580915050600190039060005260206000200160009091909190916101000a81548173ffffffffffffffffffffffffffffffffffffffff021916908373ffffffffffffffffffffffffffffffffffffffff1602179055505050565b600073ffffffffffffffffffffffffffffffffffffffff168773ffffffffffffffffffffffffffffffffffffffff1614156111b0576040517f08c379a00000000000000000000000000000000000000000000000000000000081526004016111a790613ed9565b60405180910390fd5b8383905086869050146111f8576040517f08c379a00000000000000000000000000000000000000000000000000000000081526004016111ef90613eb9565b60405180910390fd5b60005b86869050811161178f578873ffffffffffffffffffffffffffffffffffffffff163373ffffffffffffffffffffffffffffffffffffffff1614806112cc575060011515600360008b73ffffffffffffffffffffffffffffffffffffffff1673ffffffffffffffffffffffffffffffffffffffff16815260200190815260200160002060003373ffffffffffffffffffffffffffffffffffffffff1673ffffffffffffffffffffffffffffffffffffffff16815260200190815260200160002060009054906101000a900460ff161515145b61130b576040517f08c379a000000000000000000000000000000000000000000000000000000000815260040161130290613f39565b60405180910390fd5b84848281811061131e5761131d6144e1565b5b90506020020135600260008b73ffffffffffffffffffffffffffffffffffffffff1673ffffffffffffffffffffffffffffffffffffffff1681526020019081526020016000206000898985818110611379576113786144e1565b5b9050602002013581526020019081526020016000206000015410156113d3576040517f08c379a00000000000000000000000000000000000000000000000000000000081526004016113ca90613ef9565b60405180910390fd5b60008585838181106113e8576113e76144e1565b5b90506020020135600260008c73ffffffffffffffffffffffffffffffffffffffff1673ffffffffffffffffffffffffffffffffffffffff16815260200190815260200160002060008a8a86818110611443576114426144e1565b5b9050602002013581526020019081526020016000206000015461146691906142be565b141561164357600260008a73ffffffffffffffffffffffffffffffffffffffff1673ffffffffffffffffffffffffffffffffffffffff16815260200190815260200160002060008888848181106114c0576114bf6144e1565b5b9050602002013581526020019081526020016000206000808201600090556001820160009055505060005b60066000898985818110611502576115016144e1565b5b9050602002013581526020019081526020016000208054905081101561163d578973ffffffffffffffffffffffffffffffffffffffff16600660008a8a868181106115505761154f6144e1565b5b9050602002013581526020019081526020016000208281548110611577576115766144e1565b5b9060005260206000200160009054906101000a900473ffffffffffffffffffffffffffffffffffffffff1673ffffffffffffffffffffffffffffffffffffffff16141561162a57600660008989858181106115d5576115d46144e1565b5b90506020020135815260200190815260200160002081815481106115fc576115fb6144e1565b5b9060005260206000200160006101000a81549073ffffffffffffffffffffffffffffffffffffffff02191690555b80806116359061440b565b9150506114eb565b506116e0565b848482818110611656576116556144e1565b5b90506020020135600260008b73ffffffffffffffffffffffffffffffffffffffff1673ffffffffffffffffffffffffffffffffffffffff16815260200190815260200160002060008989858181106116b1576116b06144e1565b5b90506020020135815260200190815260200160002060000160008282546116d891906142be565b925050819055505b8484828181106116f3576116f26144e1565b5b90506020020135600260008a73ffffffffffffffffffffffffffffffffffffffff1673ffffffffffffffffffffffffffffffffffffffff168152602001908152602001600020600089898581811061174e5761174d6144e1565b5b905060200201358152602001908152602001600020600001600082825461177591906141dd565b9250508190555080806117879061440b565b9150506111fb565b508673ffffffffffffffffffffffffffffffffffffffff168873ffffffffffffffffffffffffffffffffffffffff163373ffffffffffffffffffffffffffffffffffffffff167f4a39dc06d4c0dbc64b70af90fd698a233a518aa5d07e595d983b8c0526c8f7fb8989898960405161180a9493929190613d9f565b60405180910390a461181b87613093565b15611a19578673ffffffffffffffffffffffffffffffffffffffff1663bc197c81338a8989898989896040518963ffffffff167c0100000000000000000000000000000000000000000000000000000000028152600401611883989796959493929190613c93565b602060405180830381600087803b15801561189d57600080fd5b505af19250505080156118ce57506040513d601f19601f820116820180604052508101906118cb9190613645565b60015b611974576118da61453f565b806308c379a0141561193757506118ef61483f565b806118fa5750611939565b806040517f08c379a000000000000000000000000000000000000000000000000000000000815260040161192e9190613e17565b60405180910390fd5b505b6040517f08c379a000000000000000000000000000000000000000000000000000000000815260040161196b90613f79565b60405180910390fd5b63bc197c817c0100000000000000000000000000000000000000000000000000000000027bffffffffffffffffffffffffffffffffffffffffffffffffffffffff1916817bffffffffffffffffffffffffffffffffffffffffffffffffffffffff191614611a17576040517f08c379a0000000000000000000000000000000000000000000000000000000008152600401611a0e90613e99565b60405180910390fd5b505b5050505050505050565b60608151835114611a69576040517f08c379a0000000000000000000000000000000000000000000000000000000008152600401611a6090613eb9565b60405180910390fd5b6000835167ffffffffffffffff811115611a8657611a85614510565b5b604051908082528060200260200182016040528015611ab45781602001602082028036833780820191505090505b50905060005b84518111611b3257611b00858281518110611ad857611ad76144e1565b5b6020026020010151858381518110611af357611af26144e1565b5b6020026020010151610584565b828281518110611b1357611b126144e1565b5b6020026020010181815250508080611b2a9061440b565b915050611aba565b508091505092915050565b60006004600083815260200190815260200160002060009054906101000a900473ffffffffffffffffffffffffffffffffffffffff169050919050565b81600260008573ffffffffffffffffffffffffffffffffffffffff1673ffffffffffffffffffffffffffffffffffffffff168152602001908152602001600020600086815260200190815260200160002060010154611bd99190614264565b341015611c1b576040517f08c379a0000000000000000000000000000000000000000000000000000000008152600401611c1290613e59565b60405180910390fd5b81600260008573ffffffffffffffffffffffffffffffffffffffff1673ffffffffffffffffffffffffffffffffffffffff1681526020019081526020016000206000868152602001908152602001600020600001541415611de957600260008473ffffffffffffffffffffffffffffffffffffffff1673ffffffffffffffffffffffffffffffffffffffff16815260200190815260200160002060008581526020019081526020016000206000808201600090556001820160009055505060005b6006600086815260200190815260200160002080549050811015611de3578373ffffffffffffffffffffffffffffffffffffffff16600660008781526020019081526020016000208281548110611d3657611d356144e1565b5b9060005260206000200160009054906101000a900473ffffffffffffffffffffffffffffffffffffffff1673ffffffffffffffffffffffffffffffffffffffff161415611dd057600660008681526020019081526020016000208181548110611da257611da16144e1565b5b9060005260206000200160006101000a81549073ffffffffffffffffffffffffffffffffffffffff02191690555b8080611ddb9061440b565b915050611cdc565b50611e54565b81600260008573ffffffffffffffffffffffffffffffffffffffff1673ffffffffffffffffffffffffffffffffffffffff16815260200190815260200160002060008681526020019081526020016000206000016000828254611e4c91906142be565b925050819055505b6000600260003373ffffffffffffffffffffffffffffffffffffffff1673ffffffffffffffffffffffffffffffffffffffff1681526020019081526020016000206000868152602001908152602001600020600001541415611fa557604051806040016040528083815260200182815250600260003373ffffffffffffffffffffffffffffffffffffffff1673ffffffffffffffffffffffffffffffffffffffff1681526020019081526020016000206000868152602001908152602001600020600082015181600001556020820151816001015590505060066000858152602001908152602001600020339080600181540180825580915050600190039060005260206000200160009091909190916101000a81548173ffffffffffffffffffffffffffffffffffffffff021916908373ffffffffffffffffffffffffffffffffffffffff160217905550612068565b81600260003373ffffffffffffffffffffffffffffffffffffffff1673ffffffffffffffffffffffffffffffffffffffff1681526020019081526020016000206000868152602001908152602001600020600001600082825461200891906141dd565b9250508190555080600260003373ffffffffffffffffffffffffffffffffffffffff1673ffffffffffffffffffffffffffffffffffffffff1681526020019081526020016000206000868152602001908152602001600020600101819055505b6004600085815260200190815260200160002060009054906101000a900473ffffffffffffffffffffffffffffffffffffffff1673ffffffffffffffffffffffffffffffffffffffff168373ffffffffffffffffffffffffffffffffffffffff16141561211b578273ffffffffffffffffffffffffffffffffffffffff166108fc349081150290604051600060405180830381858888f19350505050158015612115573d6000803e3d6000fd5b506121fa565b6000600a3461212a9190614233565b90506004600086815260200190815260200160002060009054906101000a900473ffffffffffffffffffffffffffffffffffffffff1673ffffffffffffffffffffffffffffffffffffffff166108fc829081150290604051600060405180830381858888f193505050501580156121a5573d6000803e3d6000fd5b508373ffffffffffffffffffffffffffffffffffffffff166108fc82346121cc91906142be565b9081150290604051600060405180830381858888f193505050501580156121f7573d6000803e3d6000fd5b50505b50505050565b6005818154811061221057600080fd5b90600052602060002090600702016000915090508060000154908060010160009054906101000a900473ffffffffffffffffffffffffffffffffffffffff16908060020160009054906101000a900473ffffffffffffffffffffffffffffffffffffffff16908060030154908060040154908060050154908060060154905087565b60606005805480602002602001604051908101604052809291908181526020016000905b828210156123c657838290600052602060002090600702016040518060e0016040529081600082015481526020016001820160009054906101000a900473ffffffffffffffffffffffffffffffffffffffff1673ffffffffffffffffffffffffffffffffffffffff1673ffffffffffffffffffffffffffffffffffffffff1681526020016002820160009054906101000a900473ffffffffffffffffffffffffffffffffffffffff1673ffffffffffffffffffffffffffffffffffffffff1673ffffffffffffffffffffffffffffffffffffffff168152602001600382015481526020016004820154815260200160058201548152602001600682015481525050815260200190600101906122b6565b50505050905090565b600080546123dc906143a8565b80601f0160208091040260200160405190810160405280929190818152602001828054612408906143a8565b80156124555780601f1061242a57610100808354040283529160200191612455565b820191906000526020600020905b81548152906001019060200180831161243857829003601f168201915b505050505081565b80600360003373ffffffffffffffffffffffffffffffffffffffff1673ffffffffffffffffffffffffffffffffffffffff16815260200190815260200160002060008473ffffffffffffffffffffffffffffffffffffffff1673ffffffffffffffffffffffffffffffffffffffff16815260200190815260200160002060006101000a81548160ff0219169083151502179055508173ffffffffffffffffffffffffffffffffffffffff163373ffffffffffffffffffffffffffffffffffffffff167f17307eab39ab6107e8899845ad3d59bd9653f200f220920489ca2b5937696c318360405161254e9190613dfc565b60405180910390a35050565b60036020528160005260406000206020528060005260406000206000915091509054906101000a900460ff1681565b60606006600083815260200190815260200160002080548060200260200160405190810160405280929190818152602001828054801561261e57602002820191906000526020600020905b8160009054906101000a900473ffffffffffffffffffffffffffffffffffffffff1673ffffffffffffffffffffffffffffffffffffffff16815260200190600101908083116125d4575b50505050509050919050565b60056040518060e0016040528060058054905081526020013373ffffffffffffffffffffffffffffffffffffffff1681526020018373ffffffffffffffffffffffffffffffffffffffff1681526020018581526020018481526020018781526020018681525090806001815401808255809150506001900390600052602060002090600702016000909190919091506000820151816000015560208201518160010160006101000a81548173ffffffffffffffffffffffffffffffffffffffff021916908373ffffffffffffffffffffffffffffffffffffffff16021790555060408201518160020160006101000a81548173ffffffffffffffffffffffffffffffffffffffff021916908373ffffffffffffffffffffffffffffffffffffffff160217905550606082015181600301556080820151816004015560a0820151816005015560c0820151816006015550505050505050565b60015481565b6002602052816000526040600020602052806000526040600020600091509150508060000154908060010154905082565b60046020528060005260406000206000915054906101000a900473ffffffffffffffffffffffffffffffffffffffff1681565b6000600360008473ffffffffffffffffffffffffffffffffffffffff1673ffffffffffffffffffffffffffffffffffffffff16815260200190815260200160002060008373ffffffffffffffffffffffffffffffffffffffff1673ffffffffffffffffffffffffffffffffffffffff16815260200190815260200160002060009054906101000a900460ff16905092915050565b600073ffffffffffffffffffffffffffffffffffffffff168473ffffffffffffffffffffffffffffffffffffffff1614156128f0576040517f08c379a00000000000000000000000000000000000000000000000000000000081526004016128e790613ed9565b60405180910390fd5b3373ffffffffffffffffffffffffffffffffffffffff168573ffffffffffffffffffffffffffffffffffffffff1614806129b7575060011515600360008773ffffffffffffffffffffffffffffffffffffffff1673ffffffffffffffffffffffffffffffffffffffff16815260200190815260200160002060003373ffffffffffffffffffffffffffffffffffffffff1673ffffffffffffffffffffffffffffffffffffffff16815260200190815260200160002060009054906101000a900460ff161515145b6129f6576040517f08c379a00000000000000000000000000000000000000000000000000000000081526004016129ed90613f19565b60405180910390fd5b81600260008773ffffffffffffffffffffffffffffffffffffffff1673ffffffffffffffffffffffffffffffffffffffff1681526020019081526020016000206000858152602001908152602001600020600001541015612a8c576040517f08c379a0000000000000000000000000000000000000000000000000000000008152600401612a8390613e39565b60405180910390fd5b600082600260008873ffffffffffffffffffffffffffffffffffffffff1673ffffffffffffffffffffffffffffffffffffffff168152602001908152602001600020600086815260200190815260200160002060000154612aed91906142be565b1415612c6657600260008673ffffffffffffffffffffffffffffffffffffffff1673ffffffffffffffffffffffffffffffffffffffff16815260200190815260200160002060008481526020019081526020016000206000808201600090556001820160009055505060005b6006600085815260200190815260200160002080549050811015612c60578573ffffffffffffffffffffffffffffffffffffffff16600660008681526020019081526020016000208281548110612bb357612bb26144e1565b5b9060005260206000200160009054906101000a900473ffffffffffffffffffffffffffffffffffffffff1673ffffffffffffffffffffffffffffffffffffffff161415612c4d57600660008581526020019081526020016000208181548110612c1f57612c1e6144e1565b5b9060005260206000200160006101000a81549073ffffffffffffffffffffffffffffffffffffffff02191690555b8080612c589061440b565b915050612b59565b50612cd1565b81600260008773ffffffffffffffffffffffffffffffffffffffff1673ffffffffffffffffffffffffffffffffffffffff16815260200190815260200160002060008581526020019081526020016000206000016000828254612cc991906142be565b925050819055505b81600260008673ffffffffffffffffffffffffffffffffffffffff1673ffffffffffffffffffffffffffffffffffffffff16815260200190815260200160002060008581526020019081526020016000206000016000828254612d3491906141dd565b9250508190555060066000848152602001908152602001600020849080600181540180825580915050600190039060005260206000200160009091909190916101000a81548173ffffffffffffffffffffffffffffffffffffffff021916908373ffffffffffffffffffffffffffffffffffffffff1602179055508373ffffffffffffffffffffffffffffffffffffffff168573ffffffffffffffffffffffffffffffffffffffff163373ffffffffffffffffffffffffffffffffffffffff167fc3d58168c5ae7397731d063d5bbf3d657854427343f4c083240f7aacaa2d0f628686604051612e25929190614023565b60405180910390a4612e3684613093565b1561302e578373ffffffffffffffffffffffffffffffffffffffff1663f23a6e6133878686866040518663ffffffff167c0100000000000000000000000000000000000000000000000000000000028152600401612e98959493929190613d01565b602060405180830381600087803b158015612eb257600080fd5b505af1925050508015612ee357506040513d601f19601f82011682018060405250810190612ee09190613645565b60015b612f8957612eef61453f565b806308c379a01415612f4c5750612f0461483f565b80612f0f5750612f4e565b806040517f08c379a0000000000000000000000000000000000000000000000000000000008152600401612f439190613e17565b60405180910390fd5b505b6040517f08c379a0000000000000000000000000000000000000000000000000000000008152600401612f8090613f79565b60405180910390fd5b63f23a6e617c0100000000000000000000000000000000000000000000000000000000027bffffffffffffffffffffffffffffffffffffffffffffffffffffffff1916817bffffffffffffffffffffffffffffffffffffffffffffffffffffffff19161461302c576040517f08c379a000000000000000000000000000000000000000000000000000000000815260040161302390613e99565b60405180910390fd5b505b5050505050565b6000600260008473ffffffffffffffffffffffffffffffffffffffff1673ffffffffffffffffffffffffffffffffffffffff168152602001908152602001600020600083815260200190815260200160002060010154905092915050565b600080823b905060008163ffffffff1611915050919050565b60006130bf6130ba84614071565b61404c565b905080838252602082019050828560208602820111156130e2576130e161456b565b5b60005b8581101561311257816130f888826131ce565b8452602084019350602083019250506001810190506130e5565b5050509392505050565b600061312f61312a8461409d565b61404c565b905080838252602082019050828560208602820111156131525761315161456b565b5b60005b8581101561318257816131688882613358565b845260208401935060208301925050600181019050613155565b5050509392505050565b600061319f61319a846140c9565b61404c565b9050828152602081018484840111156131bb576131ba614570565b5b6131c6848285614366565b509392505050565b6000813590506131dd816148d5565b92915050565b600082601f8301126131f8576131f7614566565b5b81356132088482602086016130ac565b91505092915050565b60008083601f84011261322757613226614566565b5b8235905067ffffffffffffffff81111561324457613243614561565b5b6020830191508360208202830111156132605761325f61456b565b5b9250929050565b600082601f83011261327c5761327b614566565b5b813561328c84826020860161311c565b91505092915050565b6000813590506132a4816148ec565b92915050565b6000813590506132b981614903565b92915050565b6000815190506132ce81614903565b92915050565b60008083601f8401126132ea576132e9614566565b5b8235905067ffffffffffffffff81111561330757613306614561565b5b6020830191508360018202830111156133235761332261456b565b5b9250929050565b600082601f83011261333f5761333e614566565b5b813561334f84826020860161318c565b91505092915050565b6000813590506133678161491a565b92915050565b600080604083850312156133845761338361457f565b5b6000613392858286016131ce565b92505060206133a3858286016131ce565b9150509250929050565b60008060008060008060008060a0898b0312156133cd576133cc61457f565b5b60006133db8b828c016131ce565b98505060206133ec8b828c016131ce565b975050604089013567ffffffffffffffff81111561340d5761340c614575565b5b6134198b828c01613211565b9650965050606089013567ffffffffffffffff81111561343c5761343b614575565b5b6134488b828c01613211565b9450945050608089013567ffffffffffffffff81111561346b5761346a614575565b5b6134778b828c016132d4565b92509250509295985092959890939650565b600080600080600060a086880312156134a5576134a461457f565b5b60006134b3888289016131ce565b95505060206134c4888289016131ce565b94505060406134d588828901613358565b93505060606134e688828901613358565b925050608086013567ffffffffffffffff81111561350757613506614575565b5b6135138882890161332a565b9150509295509295909350565b600080604083850312156135375761353661457f565b5b6000613545858286016131ce565b925050602061355685828601613295565b9150509250929050565b600080604083850312156135775761357661457f565b5b6000613585858286016131ce565b925050602061359685828601613358565b9150509250929050565b600080604083850312156135b7576135b661457f565b5b600083013567ffffffffffffffff8111156135d5576135d4614575565b5b6135e1858286016131e3565b925050602083013567ffffffffffffffff81111561360257613601614575565b5b61360e85828601613267565b9150509250929050565b60006020828403121561362e5761362d61457f565b5b600061363c848285016132aa565b91505092915050565b60006020828403121561365b5761365a61457f565b5b6000613669848285016132bf565b91505092915050565b6000602082840312156136885761368761457f565b5b600061369684828501613358565b91505092915050565b600080600080608085870312156136b9576136b861457f565b5b60006136c787828801613358565b94505060206136d8878288016131ce565b93505060406136e987828801613358565b92505060606136fa87828801613358565b91505092959194509250565b6000806040838503121561371d5761371c61457f565b5b600061372b85828601613358565b925050602061373c85828601613358565b9150509250929050565b600080600080600060a086880312156137625761376161457f565b5b600061377088828901613358565b955050602061378188828901613358565b945050604061379288828901613358565b93505060606137a388828901613358565b92505060806137b4888289016131ce565b9150509295509295909350565b60006137cd8383613809565b60208301905092915050565b60006137e58383613bcc565b60e08301905092915050565b60006137fd8383613c5a565b60208301905092915050565b613812816142f2565b82525050565b613821816142f2565b82525050565b60006138328261412a565b61383c8185614188565b9350613847836140fa565b8060005b8381101561387857815161385f88826137c1565b975061386a83614161565b92505060018101905061384b565b5085935050505092915050565b600061389082614135565b61389a8185614199565b93506138a58361410a565b8060005b838110156138d65781516138bd88826137d9565b97506138c88361416e565b9250506001810190506138a9565b5085935050505092915050565b60006138ef83856141aa565b93507f07ffffffffffffffffffffffffffffffffffffffffffffffffffffffffffffff8311156139225761392161457a565b5b602083029250613933838584614366565b82840190509392505050565b600061394a82614140565b61395481856141aa565b935061395f8361411a565b8060005b8381101561399057815161397788826137f1565b97506139828361417b565b925050600181019050613963565b5085935050505092915050565b6139a681614304565b82525050565b60006139b883856141bb565b93506139c5838584614366565b6139ce83614584565b840190509392505050565b60006139e48261414b565b6139ee81856141bb565b93506139fe818560208601614375565b613a0781614584565b840191505092915050565b6000613a1d82614156565b613a2781856141cc565b9350613a37818560208601614375565b613a4081614584565b840191505092915050565b6000613a58601c836141cc565b9150613a63826145be565b602082019050919050565b6000613a7b6038836141cc565b9150613a86826145e7565b604082019050919050565b6000613a9e602c836141cc565b9150613aa982614636565b604082019050919050565b6000613ac16022836141cc565b9150613acc82614685565b604082019050919050565b6000613ae46039836141cc565b9150613aef826146d4565b604082019050919050565b6000613b076026836141cc565b9150613b1282614723565b604082019050919050565b6000613b2a601d836141cc565b9150613b3582614772565b602082019050919050565b6000613b4d6000836141cc565b9150613b588261479b565b600082019050919050565b6000613b70601f836141cc565b9150613b7b8261479e565b602082019050919050565b6000613b936020836141cc565b9150613b9e826147c7565b602082019050919050565b6000613bb66032836141cc565b9150613bc1826147f0565b604082019050919050565b60e082016000820151613be26000850182613c5a565b506020820151613bf56020850182613809565b506040820151613c086040850182613809565b506060820151613c1b6060850182613c5a565b506080820151613c2e6080850182613c5a565b5060a0820151613c4160a0850182613c5a565b5060c0820151613c5460c0850182613c5a565b50505050565b613c638161435c565b82525050565b613c728161435c565b82525050565b6000602082019050613c8d6000830184613818565b92915050565b600060a082019050613ca8600083018b613818565b613cb5602083018a613818565b8181036040830152613cc881888a6138e3565b90508181036060830152613cdd8186886138e3565b90508181036080830152613cf28184866139ac565b90509998505050505050505050565b600060a082019050613d166000830188613818565b613d236020830187613818565b613d306040830186613c69565b613d3d6060830185613c69565b8181036080830152613d4f81846139d9565b90509695505050505050565b60006020820190508181036000830152613d758184613827565b905092915050565b60006020820190508181036000830152613d978184613885565b905092915050565b60006040820190508181036000830152613dba8186886138e3565b90508181036020830152613dcf8184866138e3565b905095945050505050565b60006020820190508181036000830152613df4818461393f565b905092915050565b6000602082019050613e11600083018461399d565b92915050565b60006020820190508181036000830152613e318184613a12565b905092915050565b60006020820190508181036000830152613e5281613a4b565b9050919050565b60006020820190508181036000830152613e7281613a6e565b9050919050565b60006020820190508181036000830152613e9281613a91565b9050919050565b60006020820190508181036000830152613eb281613ab4565b9050919050565b60006020820190508181036000830152613ed281613ad7565b9050919050565b60006020820190508181036000830152613ef281613afa565b9050919050565b60006020820190508181036000830152613f1281613b1d565b9050919050565b60006020820190508181036000830152613f3281613b40565b9050919050565b60006020820190508181036000830152613f5281613b63565b9050919050565b60006020820190508181036000830152613f7281613b86565b9050919050565b60006020820190508181036000830152613f9281613ba9565b9050919050565b6000602082019050613fae6000830184613c69565b92915050565b600060e082019050613fc9600083018a613c69565b613fd66020830189613818565b613fe36040830188613818565b613ff06060830187613c69565b613ffd6080830186613c69565b61400a60a0830185613c69565b61401760c0830184613c69565b98975050505050505050565b60006040820190506140386000830185613c69565b6140456020830184613c69565b9392505050565b6000614056614067565b905061406282826143da565b919050565b6000604051905090565b600067ffffffffffffffff82111561408c5761408b614510565b5b602082029050602081019050919050565b600067ffffffffffffffff8211156140b8576140b7614510565b5b602082029050602081019050919050565b600067ffffffffffffffff8211156140e4576140e3614510565b5b6140ed82614584565b9050602081019050919050565b6000819050602082019050919050565b6000819050602082019050919050565b6000819050602082019050919050565b600081519050919050565b600081519050919050565b600081519050919050565b600081519050919050565b600081519050919050565b6000602082019050919050565b6000602082019050919050565b6000602082019050919050565b600082825260208201905092915050565b600082825260208201905092915050565b600082825260208201905092915050565b600082825260208201905092915050565b600082825260208201905092915050565b60006141e88261435c565b91506141f38361435c565b9250827fffffffffffffffffffffffffffffffffffffffffffffffffffffffffffffffff0382111561422857614227614454565b5b828201905092915050565b600061423e8261435c565b91506142498361435c565b92508261425957614258614483565b5b828204905092915050565b600061426f8261435c565b915061427a8361435c565b9250817fffffffffffffffffffffffffffffffffffffffffffffffffffffffffffffffff04831182151516156142b3576142b2614454565b5b828202905092915050565b60006142c98261435c565b91506142d48361435c565b9250828210156142e7576142e6614454565b5b828203905092915050565b60006142fd8261433c565b9050919050565b60008115159050919050565b60007fffffffff0000000000000000000000000000000000000000000000000000000082169050919050565b600073ffffffffffffffffffffffffffffffffffffffff82169050919050565b6000819050919050565b82818337600083830152505050565b60005b83811015614393578082015181840152602081019050614378565b838111156143a2576000848401525b50505050565b600060028204905060018216806143c057607f821691505b602082108114156143d4576143d36144b2565b5b50919050565b6143e382614584565b810181811067ffffffffffffffff8211171561440257614401614510565b5b80604052505050565b60006144168261435c565b91507fffffffffffffffffffffffffffffffffffffffffffffffffffffffffffffffff82141561444957614448614454565b5b600182019050919050565b7f4e487b7100000000000000000000000000000000000000000000000000000000600052601160045260246000fd5b7f4e487b7100000000000000000000000000000000000000000000000000000000600052601260045260246000fd5b7f4e487b7100000000000000000000000000000000000000000000000000000000600052602260045260246000fd5b7f4e487b7100000000000000000000000000000000000000000000000000000000600052603260045260246000fd5b7f4e487b7100000000000000000000000000000000000000000000000000000000600052604160045260246000fd5b600060033d111561455e5760046000803e61455b600051614595565b90505b90565b600080fd5b600080fd5b600080fd5b600080fd5b600080fd5b600080fd5b600080fd5b6000601f19601f8301169050919050565b60007c010000000000000000000000000000000000000000000000000000000082049050919050565b7f596f75722062616c616e636520697320696e73756666696369656e7400000000600082015250565b7f4f7661206b6f6c6963696e6120657468657265756d61206e696a6520646f766f60008201527f6c6a6e61207a61206f7675207472616e7a616b63696a75210000000000000000602082015250565b7f5468652062616c616e6365206f6620746865207265717565737465722069732060008201527f696e73756666696369656e740000000000000000000000000000000000000000602082015250565b7f4552433131353552656365697665722072656a656374656420746f6b656e732060008201527f3a28000000000000000000000000000000000000000000000000000000000000602082015250565b7f546865206c656e677468206f6620696473206e6565647320746f20626520657160008201527f75616c20746f206c656e677468206f6620616d6d6f756e747300000000000000602082015250565b7f596f752063616e2774206d616b652061207472616e7366657220746f2061646460008201527f7265737320300000000000000000000000000000000000000000000000000000602082015250565b7f596f75722062616c616e636520697320696e73756666696369656e7421000000600082015250565b50565b7f596f7520617265206e6f7420616c6c6f77656420746f20646f20746869732100600082015250565b7f416d6f756e74206e6565647320746f20626520626967676572207468616e2030600082015250565b7f596f752063616e2774207472616e7366657220746f206e6f6e2045524331313560008201527f35526563656976657220636f6e74726163740000000000000000000000000000602082015250565b600060443d101561484f576148d2565b614857614067565b60043d036004823e80513d602482011167ffffffffffffffff8211171561487f5750506148d2565b808201805167ffffffffffffffff81111561489d57505050506148d2565b80602083010160043d0385018111156148ba5750505050506148d2565b6148c9826020018501866143da565b82955050505050505b90565b6148de816142f2565b81146148e957600080fd5b50565b6148f581614304565b811461490057600080fd5b50565b61490c81614310565b811461491757600080fd5b50565b6149238161435c565b811461492e57600080fd5b5056fea26469706673582212209f507dbf6b38996ba1bec81c927ff03c7983a22f0fccc271a8263a7a73b88aaa64736f6c63430008060033",
  "immutableReferences": {},
  "source": "// SPDX-License-Identifier: MIT\r\n\r\npragma solidity ^0.8.0;\r\nimport \"@openzeppelin/contracts/utils/introspection/IERC165.sol\";\r\nimport \"@openzeppelin/contracts/token/ERC1155/IERC1155Receiver.sol\";\r\n\r\ninterface IERC1155 is IERC165 {\r\n    event TransferSingle(\r\n        address indexed operator,\r\n        address indexed from,\r\n        address indexed to,\r\n        uint256 id,\r\n        uint256 value\r\n    );\r\n    event TransferBatch(\r\n        address indexed operator,\r\n        address indexed from,\r\n        address indexed to,\r\n        uint256[] ids,\r\n        uint256[] values\r\n    );\r\n    event ApprovalForAll(\r\n        address indexed account,\r\n        address indexed operator,\r\n        bool approved\r\n    );\r\n    event URI(string value, uint256 indexed id);\r\n\r\n    function balanceOf(address account, uint256 id)\r\n        external\r\n        view\r\n        returns (uint256);\r\n\r\n    function balanceOfBatch(address[] calldata accounts, uint256[] calldata ids)\r\n        external\r\n        view\r\n        returns (uint256[] memory);\r\n\r\n    function setApprovalForAll(address operator, bool approved) external;\r\n\r\n    function isApprovedForAll(address account, address operator)\r\n        external\r\n        view\r\n        returns (bool);\r\n\r\n    function safeTransferFrom(\r\n        address from,\r\n        address to,\r\n        uint256 id,\r\n        uint256 amount,\r\n        bytes calldata data\r\n    ) external;\r\n\r\n    function safeBatchTransferFrom(\r\n        address from,\r\n        address to,\r\n        uint256[] calldata ids,\r\n        uint256[] calldata amounts,\r\n        bytes calldata data\r\n    ) external;\r\n}\r\n\r\ncontract ERC1155 is IERC1155 {\r\n    struct Token {\r\n        uint256 balance;\r\n        uint256 price;\r\n    }\r\n    struct SwapRequest {\r\n        uint256 id;\r\n        address initializer;\r\n        address confirmer;\r\n        uint256 confirmerTokenId;\r\n        uint256 confirmerAmount;\r\n        uint256 initializerTokenId;\r\n        uint256 initializerAmount;\r\n    }\r\n    string public baseUri = \"\";\r\n    uint256 public lastId = 1;\r\n    //address => tokenId => amount\r\n    mapping(address => mapping(uint256 => Token)) public balances;\r\n    //real owner => account => is allowed to spend owners balance? yes | no\r\n    mapping(address => mapping(address => bool)) public approvals;\r\n    //tokenId => creator of the token\r\n    mapping(uint256 => address) public creators;\r\n    //array of swap requests\r\n    SwapRequest[] public requests;\r\n    //tokenId => owners\r\n    mapping(uint256 => address[]) owners;\r\n\r\n    constructor(string memory uri) {\r\n        baseUri = uri;\r\n    }\r\n\r\n    function balanceOf(address account, uint256 id)\r\n        public\r\n        view\r\n        override\r\n        returns (uint256)\r\n    {\r\n        return balances[account][id].balance;\r\n    }\r\n\r\n    function priceOf(address account, uint256 id)\r\n        public\r\n        view\r\n        returns (uint256)\r\n    {\r\n        return balances[account][id].price;\r\n    }\r\n\r\n    function getRequests() public view returns (SwapRequest[] memory) {\r\n        return requests;\r\n    }\r\n\r\n    function creatorOf(uint256 id) public view returns (address) {\r\n        return creators[id];\r\n    }\r\n\r\n    function ownersOf(uint256 tokenId) public view returns (address[] memory) {\r\n        return owners[tokenId];\r\n    }\r\n\r\n    function balanceOfBatch(address[] memory accounts, uint256[] memory ids)\r\n        public\r\n        view\r\n        override\r\n        returns (uint256[] memory)\r\n    {\r\n        require(\r\n            accounts.length == ids.length,\r\n            \"The length of ids needs to be equal to length of ammounts\"\r\n        );\r\n        uint256[] memory batchBalances = new uint256[](accounts.length);\r\n        for (uint256 i = 0; i <= accounts.length; i++) {\r\n            batchBalances[i] = balanceOf(accounts[i], ids[i]);\r\n        }\r\n        return batchBalances;\r\n    }\r\n\r\n    function setApprovalForAll(address operator, bool approved)\r\n        public\r\n        override\r\n    {\r\n        approvals[msg.sender][operator] = approved;\r\n        emit ApprovalForAll(msg.sender, operator, approved);\r\n    }\r\n\r\n    function isApprovedForAll(address account, address operator)\r\n        public\r\n        view\r\n        override\r\n        returns (bool)\r\n    {\r\n        return approvals[account][operator];\r\n    }\r\n\r\n    function safeTransferFrom(\r\n        address from,\r\n        address to,\r\n        uint256 id,\r\n        uint256 amount,\r\n        bytes memory data\r\n    ) public override {\r\n        require(to != address(0), \"You can't make a transfer to address 0\");\r\n        require(from == msg.sender || approvals[from][msg.sender] == true, \"\");\r\n        require(\r\n            balances[from][id].balance >= amount,\r\n            \"Your balance is insufficient\"\r\n        );\r\n        if (balances[from][id].balance - amount == 0) {\r\n            delete balances[from][id];\r\n            //removes the address from the owners array\r\n            for (uint256 i = 0; i < owners[id].length; i++) {\r\n                if (owners[id][i] == from) {\r\n                    delete owners[id][i];\r\n                }\r\n            }\r\n        } else {\r\n            balances[from][id].balance -= amount;\r\n        }\r\n        balances[to][id].balance += amount;\r\n        owners[id].push(to);\r\n\r\n        emit TransferSingle(msg.sender, from, to, id, amount);\r\n        if (isContract(to)) {\r\n            try\r\n                IERC1155Receiver(to).onERC1155Received(\r\n                    msg.sender,\r\n                    from,\r\n                    id,\r\n                    amount,\r\n                    data\r\n                )\r\n            returns (bytes4 response) {\r\n                if (response != IERC1155Receiver.onERC1155Received.selector) {\r\n                    revert(\"ERC1155Receiver rejected tokens :(\");\r\n                }\r\n            } catch Error(string memory reason) {\r\n                revert(reason);\r\n            } catch {\r\n                revert(\"You can't transfer to non ERC1155Receiver contract\");\r\n            }\r\n        }\r\n    }\r\n\r\n    function safeBatchTransferFrom(\r\n        address from,\r\n        address to,\r\n        uint256[] calldata ids,\r\n        uint256[] calldata amounts,\r\n        bytes calldata data\r\n    ) public override {\r\n        require(to != address(0), \"You can't make a transfer to address 0\");\r\n        require(\r\n            ids.length == amounts.length,\r\n            \"The length of ids needs to be equal to length of ammounts\"\r\n        );\r\n        for (uint256 i = 0; i <= ids.length; i++) {\r\n            require(\r\n                msg.sender == from || approvals[from][msg.sender] == true,\r\n                \"You are not allowed to do this!\"\r\n            );\r\n            require(\r\n                balances[from][ids[i]].balance >= amounts[i],\r\n                \"Your balance is insufficient!\"\r\n            );\r\n            if (balances[from][ids[i]].balance - amounts[i] == 0) {\r\n                delete balances[from][ids[i]];\r\n                //removes the address from the owners array\r\n                for (uint256 j = 0; j < owners[ids[i]].length; j++) {\r\n                    if (owners[ids[i]][j] == from) {\r\n                        delete owners[ids[i]][j];\r\n                    }\r\n                }\r\n            } else {\r\n                balances[from][ids[i]].balance -= amounts[i];\r\n            }\r\n            balances[to][ids[i]].balance += amounts[i];\r\n        }\r\n        emit TransferBatch(msg.sender, from, to, ids, amounts);\r\n        if (isContract(to)) {\r\n            try\r\n                IERC1155Receiver(to).onERC1155BatchReceived(\r\n                    msg.sender,\r\n                    from,\r\n                    ids,\r\n                    amounts,\r\n                    data\r\n                )\r\n            returns (bytes4 response) {\r\n                if (\r\n                    response != IERC1155Receiver.onERC1155BatchReceived.selector\r\n                ) {\r\n                    revert(\"ERC1155Receiver rejected tokens :(\");\r\n                }\r\n            } catch Error(string memory reason) {\r\n                revert(reason);\r\n            } catch {\r\n                revert(\"You can't transfer to non ERC1155Receiver contract\");\r\n            }\r\n        }\r\n    }\r\n\r\n    function mint(uint256 amount, uint256 price) public {\r\n        require(amount > 0, \"Amount needs to be bigger than 0\");\r\n        balances[msg.sender][lastId] = Token(amount, price);\r\n        creators[lastId] = msg.sender;\r\n        owners[lastId].push(msg.sender);\r\n        lastId++;\r\n    }\r\n\r\n    function buy(\r\n        uint256 tokenId,\r\n        address from,\r\n        uint256 amount,\r\n        uint256 sellPrice\r\n    ) public payable {\r\n        require(\r\n            msg.value >= balances[from][tokenId].price * amount,\r\n            \"Ova kolicina ethereuma nije dovoljna za ovu tranzakciju!\"\r\n        );\r\n        //checks if the seller sold all of his tokens\r\n        if (balances[from][tokenId].balance == amount) {\r\n            delete balances[from][tokenId];\r\n            //removes the address from the owners array\r\n            for (uint256 i = 0; i < owners[tokenId].length; i++) {\r\n                if (owners[tokenId][i] == from) {\r\n                    delete owners[tokenId][i];\r\n                }\r\n            }\r\n        } else {\r\n            balances[from][tokenId].balance -= amount;\r\n        }\r\n        if (balances[msg.sender][tokenId].balance == 0) {\r\n            balances[msg.sender][tokenId] = Token(amount, sellPrice);\r\n            owners[tokenId].push(msg.sender);\r\n        } else {\r\n            balances[msg.sender][tokenId].balance += amount;\r\n            balances[msg.sender][tokenId].price = sellPrice;\r\n        }\r\n        if (from == creators[tokenId]) {\r\n            payable(from).transfer(msg.value);\r\n        } else {\r\n            uint256 fee = msg.value / 10;\r\n            payable(creators[tokenId]).transfer(fee);\r\n            payable(from).transfer(msg.value - fee);\r\n        }\r\n    }\r\n\r\n    function createSwapRequest(\r\n        uint256 yourTokenId,\r\n        uint256 yourAmount,\r\n        uint256 confirmerTokenId,\r\n        uint256 confirmerAmount,\r\n        address confirmer\r\n    ) public {\r\n        requests.push(\r\n            SwapRequest(\r\n                requests.length,\r\n                msg.sender,\r\n                confirmer,\r\n                confirmerTokenId,\r\n                confirmerAmount,\r\n                yourTokenId,\r\n                yourAmount\r\n            )\r\n        );\r\n    }\r\n\r\n    function confirmSwapRequest(uint256 swapRequestId) public {\r\n        //sending to initializer\r\n        SwapRequest memory request = requests[swapRequestId];\r\n        require(msg.sender == request.confirmer);\r\n        require(\r\n            balances[msg.sender][request.confirmerTokenId].balance >=\r\n                request.confirmerAmount,\r\n            \"Your balance is insufficient\"\r\n        );\r\n        require(\r\n            balances[request.initializer][request.initializerTokenId].balance >=\r\n                request.initializerAmount,\r\n            \"The balance of the requester is insufficient\"\r\n        );\r\n        if (\r\n            balances[msg.sender][request.confirmerTokenId].balance -\r\n                request.confirmerAmount ==\r\n            0\r\n        ) {\r\n            delete balances[msg.sender][request.confirmerTokenId];\r\n            //removes the address from the owners array\r\n            for (\r\n                uint256 i = 0;\r\n                i < owners[request.confirmerTokenId].length;\r\n                i++\r\n            ) {\r\n                if (owners[request.confirmerTokenId][i] == msg.sender) {\r\n                    delete owners[request.confirmerTokenId][i];\r\n                }\r\n            }\r\n        } else {\r\n            balances[msg.sender][request.confirmerTokenId].balance -= request\r\n                .confirmerAmount;\r\n        }\r\n        balances[request.initializer][request.confirmerTokenId]\r\n            .balance += request.confirmerAmount;\r\n        owners[request.confirmerTokenId].push(request.initializer);\r\n\r\n        //sending to confirmer\r\n        if (\r\n            balances[request.initializer][request.initializerTokenId].balance -\r\n                request.initializerAmount ==\r\n            0\r\n        ) {\r\n            delete balances[request.initializer][request.initializerTokenId];\r\n            //removes the address from the owners array\r\n            for (\r\n                uint256 i = 0;\r\n                i < owners[request.initializerTokenId].length;\r\n                i++\r\n            ) {\r\n                if (\r\n                    owners[request.initializerTokenId][i] == request.initializer\r\n                ) {\r\n                    delete owners[request.initializerTokenId][i];\r\n                }\r\n            }\r\n        } else {\r\n            balances[request.initializer][request.initializerTokenId]\r\n                .balance -= request.initializerAmount;\r\n        }\r\n        balances[request.confirmer][request.initializerTokenId]\r\n            .balance += request.initializerAmount;\r\n        owners[request.initializerTokenId].push(request.confirmer);\r\n    }\r\n\r\n    function supportsInterface(bytes4 interfaceId)\r\n        public\r\n        view\r\n        override\r\n        returns (bool)\r\n    {\r\n        return interfaceId == type(IERC1155).interfaceId;\r\n    }\r\n\r\n    function isContract(address _address) private returns (bool) {\r\n        uint32 size;\r\n        assembly {\r\n            size := extcodesize(_address)\r\n        }\r\n        return (size > 0);\r\n    }\r\n}\r\n",
  "sourcePath": "C:/Users/sakac/Desktop/NFTv2/contract/contracts/ERC1155.sol",
  "compiler": {
    "name": "solc",
    "version": "0.8.6+commit.11564f7e.Emscripten.clang"
  },
  "schemaVersion": "3.3.4",
  "updatedAt": "2021-08-04T13:27:15.448Z",
  "networkType": "ethereum",
  "devdoc": {
    "kind": "dev",
    "methods": {
      "supportsInterface(bytes4)": {
        "details": "Returns true if this contract implements the interface defined by `interfaceId`. See the corresponding https://eips.ethereum.org/EIPS/eip-165#how-interfaces-are-identified[EIP section] to learn more about how these ids are created. This function call must use less than 30 000 gas."
      }
    },
    "version": 1
  },
  "userdoc": {
    "kind": "user",
    "methods": {},
    "version": 1
  }
}